:020000040040BA
:10000000B0554020D92D4000D52D4000D52D4000C1
:10001000D52D4000D52D4000D52D4000000000001A
:10002000000000000000000000000000D52D40008E
:10003000D52D400000000000A12B4000552B4000B2
:10004000D52D4000D52D4000D52D4000D52D4000A8
:10005000D52D4000D52D4000D52D4000D52D400098
:10006000D52D400000000000712D4000852D40007E
:10007000992D4000D52D4000D52D4000D52D4000B4
:10008000AD2D4000C12D4000D52D4000D52D4000A4
:10009000D52D4000D52D4000D52D4000D52D400058
:1000A000D52D4000D52D4000D52D4000D52D400048
:1000B000D52D4000D52D4000D52D4000D52D400038
:1000C000D52D4000D52D4000D52D4000D52D400028
:1000D000D52D4000D52D4000D52D4000D52D400018
:1000E000D52D4000D52D4000D52D4000D52D400008
:1000F000D52D4000D52D4000D52D4000D52D4000F8
:10010000D52D4000D52D4000D52D4000D52D4000E7
:10011000D52D4000D52D400000000000000000005B
:10012000D52D4000D52D4000D52D4000D52D4000C7
:10013000D52D4000D52D4000D52D4000D52D4000B7
:10014000D52D4000D52D4000D52D4000D52D4000A7
:10015000D52D4000D52D4000D52D4000D52D400097
:10016000D52D4000D52D400010B5054C237833B96E
:10017000044B13B10448AFF300800123237010BD7A
:100180003404402000000000003640000C4B43B116
:100190000C480D4910B5AFF300800C48036823B933
:1001A00010BD0A48036833B97047094B002BF7D0DC
:1001B000BDE810401847064B002BF5D0184700BF8C
:1001C00000000000003640003804402000364000A7
:1001D00000000000C0B110B5034604680E48844218
:1001E00001D0022010BD89B152B1EFF305800B4C54
:1001F000246820430CD10A4804680A48844209D084
:100200001846094B984710BD02207047032010BDC7
:10021000042010BD042010BD434F4C42000040207C
:100220009005402034064020A50B40002DE9F04108
:1002300082B0099C302C00D118B9022002B0BDE870
:10024000F081EFF3108472B62A4E356801353560BF
:1002500084F31088284C2468284D2E68A04207D0CB
:1002600036B10025A46A0135A04201D0B542F9D3C8
:100270001E46174688460546EFF3108372B61D49A1
:100280000A68013A0A6083F310881D4B9847A5421B
:1002900028D04EB327F003030433089A22F0030258
:1002A000934223D8174B1868174B98420CBF132062
:1002B0000020EFF30583154A1268134307D0EFF3CC
:1002C0000583124A12681343B3F1F03F10D300289C
:1002D000B4D1089B009333463A46414628460C4C1D
:1002E000A047ABE70220A9E70320A7E70520A5E781
:1002F0001320A3E78C054020E8044020DC044020C4
:100300006924400090054020340640200000402031
:10031000D10C400060B108B550F8043C53B11968E5
:10032000054B994201D0032008BD044B984708BDF6
:1003300003207047032008BD434F4C42990D4000F5
:1003400000282ED038B5044605681B48854201D0E8
:10035000022038BD39B342B3E069824227D82BB1BD
:10036000EFF30580154D2D68284322D11448056808
:100370001448854211D0EFF30580104D2D682843B5
:1003800007D0EFF305800D4D2D682843B0F1F03F05
:1003900005D320460C4CA04738BD132038BD132090
:1003A00038BD02207047032038BD052038BD052028
:1003B00038BD042038BD00BF4554594200004020DC
:1003C0009005402034064020FD0D40002DE9F0410D
:1003D000069C342C00D110B90220BDE8F081EFF367
:1003E000108472B6284E35680135356084F3108864
:1003F000264C2468264D2E68A04207D036B1002531
:10040000E46A0135A04201D0B542F9D31F46164631
:1004100088460546EFF3108372B61B490A68013A15
:100420000A6083F310881B4B9847A54220D016B36F
:10043000632F23D9184B1868184B98420CBF132010
:100440000020EFF30583164A1268134307D0EFF339
:100450000583134A12681343B3F1F03F11D388B9EF
:100460003B463246414628460E4CA047BDE8F08147
:100470000220BDE8F0810320BDE8F0810520BDE841
:10048000F0811320BDE8F0818C054020D404402089
:10049000F0044020692440009005402034064020AC
:1004A00000004020610F4000282A00D108B9062032
:1004B000704770B5EFF3108372B6214C2268013299
:1004C000226083F310881F4B1C681F4B1A68A042E0
:1004D00007D032B10023A4690133A04201D0934276
:1004E000F9D30E460546EFF3108372B614490A6835
:1004F000013A0A6083F31088144B9847A5421AD03A
:10050000134B1868134B98420CBF13200020EFF3D5
:100510000583114A1268134307D0EFF305830E4A8F
:1005200012681343B3F1F03F07D338B93146284678
:100530000A4B984770BD062070BD132070BD00BFE8
:100540008C054020C0044020E40440206924400081
:100550009005402034064020000040207D114000DE
:1005600008B330B583B0044605681348854202D00D
:10057000062003B030BDC3B1069850B1EFF305803B
:100580000E4D2D68284312D10D4805680D4885424F
:100590000FD0032A01D90820EBE72046069C0094DF
:1005A000094CA047E5E7062070470320E1E7042057
:1005B000DFE70420DDE700BF4E4456440000402042
:1005C0009005402034064020D511400070B110B590
:1005D000034604680748844201D0062010BD32F06B
:1005E000020005D11846044B984710BD06207047FD
:1005F000082010BD4E445644B5124000342B00D1A3
:1006000008B91C207047F8B5EFF3108372B6244D7B
:100610002C6801342C6083F31088224B1C68224B19
:100620001D68A04207D035B10023246A0133A042DF
:1006300001D0AB42F9D316460F460546EFF31083BF
:1006400072B617490A68013A0A6083F31088174B9B
:100650009847A5421FD0012E1FD8154B1868154B7F
:1006600098420CBF13200020EFF30583124A126852
:10067000134307D0EFF305830F4A12681343B3F116
:10068000F03F06D350B93246394628460B4B9847BF
:10069000F8BD1320F8BD1C20F8BD1F20F8BD00BF19
:1006A0008C054020C8044020C40440206924400038
:1006B00090054020340640200000402055164000A0
:1006C00038B308B503460068154A904201D01C2093
:1006D00008BD51B1EFF305821248006802431AD1F8
:1006E000114A1068114A904217D0EFF305820D4865
:1006F0000068024303D118460D4B984708BDEFF33D
:100700000582084800680243B2F1F03FF3D213209B
:1007100008BD1C207047042008BD042008BD00BF90
:100720004554554D0000402090054020340640209F
:10073000C1164000C8B108B5034601680D4A914290
:1007400001D01C2008BDEFF305820B4909680A435C
:1007500007D0EFF30582084909680A43B2F1F03F78
:1007600005D31846054B984708BD1C207047132039
:1007700008BD00BF4554554D0000402049194000B8
:100780002DE9F04182B0099C3C2C00D118B9092018
:1007900002B0BDE8F081EFF3108472B62B4E3568DD
:1007A0000135356084F31088294C2468294D2E6862
:1007B000A04207D036B10025246B0135A04201D0FC
:1007C000B542F9D31E46174688460546EFF3108317
:1007D00072B61E490A68013A0A6083F310881E4BFC
:1007E0009847A54227D046B37B1E0F2B27D8089BDE
:1007F000B7EB930F25D8194B1868194B98420CBFCB
:1008000013200020EFF30583164A1268134307D024
:10081000EFF30582134B1B681343B3F1F03F12D380
:100820000028B5D1089B009333463A4641462846F6
:100830000D4CA047ACE70920AAE70320A8E7052054
:10084000A6E70520A4E71320A2E700BF8C054020FF
:10085000EC044020CC044020692440009005402056
:100860003406402000004020091C4000C0B110B5F3
:10087000034604680E48844201D0092010BD89B1A6
:1008800052B1EFF305800B4C246820430CD10A4889
:1008900004680A48844209D01846094B984710BD9D
:1008A00009207047032010BD042010BD042010BD96
:1008B0005545555100004020900540203406402009
:1008C000811C4000C0B110B5034604680E48844244
:1008D00001D0092010BD89B152B1EFF305800B4C56
:1008E000246820430CD10A4804680A48844209D08D
:1008F0001846094B984710BD09207047032010BDCA
:10090000042010BD042010BD554555510000402065
:1009100090054020340640207D1E4000202B00D151
:1009200008B90C207047F8B5EFF3108372B6214D6B
:100930002C6801342C6083F310881F4B1C681F4BFC
:100940001D68A04207D035B1002364690133A0427D
:1009500001D0AB42F9D317460E460546EFF310839C
:1009600072B614490A68013A0A6083F31088144B7E
:100970009847A5421AD0134B1A68134B9A4217D0C6
:10098000EFF30583114A1268134305D13A46314605
:1009900028460F4B9847F8BDEFF305830B4A1268C2
:1009A0001343B3F1F03FF1D21320F8BD0C20F8BD92
:1009B0001320F8BD8C054020D0044020E0044020E6
:1009C000692440009005402034064020000040206B
:1009D00065204000B8B108B5034600680D4A904252
:1009E00001D00C2008BD51B1EFF305820A48006820
:1009F00002430AD1094A1068094A904207D01846B2
:100A0000084B984708BD0C207047042008BD0420FF
:100A100008BD00BF414D45530000402090054020D7
:100A200034064020C120400048B108B50168054A9D
:100A3000914201D00C2008BD034B984708BD0C2003
:100A4000704700BF414D4553552140002DE9F04FFF
:100A500087B0109D169CB42C00D118B90E2007B099
:100A6000BDE8F08FEFF3108472B6464F3E68013652
:100A70003E6084F31088444C2468444ED6F800C08D
:100A8000BCF1000F25D0119E06F1FF3EAE440026BA
:100A9000B0464FF0010AB14604E0D4F88840013670
:100AA000664516D0A04213D0B8F1000F11D1D4F88A
:100AB0000CB0AB4504D82769AF4201D9D0464D46AA
:100AC000DE45EAD32769BE45E7D2D0464D46E4E786
:100AD00004461E46174688468146EFF3108372B6D9
:100AE00028490A68013A0A6083F31088284B98471E
:100AF000A1453AD0002F3AD0002D38D0119BC72BFA
:100B000037D9129B1F2B36D8139A934235D3159B96
:100B1000012B01D91020A2E71E4B18681E4B9842EA
:100B20000CBF13200020EFF305831C4A1268134307
:100B300007D0EFF30582194B1B681343B3F1F03F65
:100B40001DD300288BD1159B0593149B0493139BF5
:100B50000393129B0293119B0193009533463A46EF
:100B6000414648460E4CA04779E70E2077E7032020
:100B700075E7052073E70F2071E718206FE7132052
:100B80006DE700BF8C0540207C0540208405402097
:100B90006924400090054020340640200000402099
:100BA000B921400038B5EFF3108472B6836833B9C9
:100BB00000230B607AB984F31088102038BD013B04
:100BC000836003691A1D0A601A680261186084F361
:100BD0001088002038BD184B1B681BB184F31088A7
:100BE000102038BD154B1D68154BAB66E866E967EC
:100BF000D5F8B0300133C5F8B030436A591C4162B2
:100C00009BB905622D676D6708232B630123AB63D6
:100C1000EA64094A13680133136084F31088284694
:100C2000084B9847D5F8840038BD036A2B67596F85
:100C300069670D675D67E7E78C05402090054020F8
:100C4000490C4000D925400010B5EFF3108372B66F
:100C5000846E1B4A944202D083F3108810BDD0F8F2
:100C6000B0208A42F8D1C26E002AF5D01468154926
:100C70008C42F1D1516A0029EED000218166516A7F
:100C80000139516291B91162026B082AE4D1102234
:100C9000C0F884200C490A6801320A6083F3108886
:100CA0000A4B9847EFF3108372B6D5E7016F446F94
:100CB0004C672167146AA04208BF1162E4E700BFD5
:100CC000490C4000434F4C428C054020A524400075
:100CD000F8B507460D4614461E46302200212A4B21
:100CE000984704F1030E2EF0030E069A22F0030239
:100CF0007D607E61BA61C7F81CE00EF10404B2FBAE
:100D0000F4F206EB040C002A38D0604600231D469E
:100D100000E00D46691CF050204423448A42F8D17B
:100D200005FB04F4B960F96009B90520F8BDCEF1FE
:100D3000FF2E0EF57F0E0EF1FC0E6444002344F8E6
:100D40000E303E61EFF3108172B6104B3B60104BDA
:100D50001B685BB90F4B1F60BF62FF620C4A1368D0
:100D60000133136081F310880020F8BD094B1B6824
:100D7000DA6ADF629762FA62BB62EFE70023BB6068
:100D8000FB600520F8BD00BF61334000434F4C427B
:100D9000DC044020E804402010B5EFF3108472B664
:100DA00050F8042C136ADBB1516A0139516289B9D8
:100DB000116200229A66D96F0860C3F884200D4939
:100DC0000A6801320A6084F3108818460A4B984773
:100DD000002010BD196F11625A6F4A671167E8E76A
:100DE000136940F8043D106193680133936084F304
:100DF0001088EDE78C054020A52440002DE9F8433C
:100E0000044688469946033222F00305EFF3108327
:100E100072B62C4A16682C4F02E0226A964245D0E0
:100E2000266283F3108829462046B847EFF31083E3
:100E300072B60028F1D0C8F8000083F310880020B3
:100E4000BDE8F883214A126822B183F3108810208C
:100E5000BDE8F8831E4AB266F466C6F87C80B567C2
:100E6000D6F8B0200132C6F8B020A26A511CA162A7
:100E7000AAB9666236677667092232630122B263D5
:100E8000C6F84C9011490A6801320A6083F3108851
:100E90003046104B9847D6F88400BDE8F883626A64
:100EA0003267516F71670E675667E5E70022C8F831
:100EB0000020B9F1000FC5D183F310881020BDE8E0
:100EC000F88300BF90054020ED0F40008C054020C6
:100ED000D90E4000D925400010B5EFF3108372B64B
:100EE000846E1B4A944202D083F3108810BDD0F860
:100EF000B0208A42F8D1C26E002AF5D01468154994
:100F00008C42F1D1916A0029EED000218166916A6C
:100F10000139916291B95162026B092AE4D1102220
:100F2000C0F884200C490A6801320A6083F31088F3
:100F30000A4B9847EFF3108372B6D5E7016F446F01
:100F40004C672167546AA04208BF5162E4E700BFC2
:100F5000D90E4000455459428C054020A52440003C
:100F6000F8B504460F4616461D46342200211A4B9A
:100F7000984725F003036760A661E3612661666117
:100F8000A3F10802A2600222E260334443F8044C59
:100F900043F8086D3360114B736000232362EFF355
:100FA000108172B60E4B23600E4B1B6873B10E4B53
:100FB0001B681A6B1C63D4622263E362094A1368DC
:100FC0000133136081F310880020F8BD064B1C60CC
:100FD000E4622463F2E700BF61334000EEEEFFFFFE
:100FE00045545942F0044020D40440202DE9F041FA
:100FF000EFF3108472B6C3683A4D1D44826802EB69
:10100000C5028A420AD98846374A1668066242698A
:1010100001330025354F4FF0010E33E084F3108883
:101020000020BDE8F08105B94261D2F800C0ACEB08
:101030000205083DA8452DD9DCF80450BD4205D075
:10104000DCF8002083B1013B75461FE0DCF800505E
:101050001560C568013DC5604569AC4501D0754660
:1010600014E04261754611E0754684F31088EFF391
:10107000108472B6016A8E4203D04269C36801339C
:1010800006624BB35168B942CDD01268002BECD048
:10109000013BEAE705B3A5EB0803132B0BD908F1D5
:1010A0000803D51842F803C0104B6B60C3680133C6
:1010B000C3601560454650608368083B5D1B8560D2
:1010C00043699A4205D084F3108802F10800BDE814
:1010D000F08113684361F6E784F310880020BDE8CF
:1010E000F08100BFFEFFFF1F90054020EEEEFFFFE6
:1010F00038B5EFF3108372B6846E1C4A944202D066
:1011000083F3108838BDD0F8B0208A42F8D1C26E7F
:10111000002AF5D0146816498C42F1D15169002992
:10112000EED00021816651691469E4B10139516141
:1011300089B91161026B072AE2D1C0F884200D49F8
:101140000A6801320A6083F310880B4B9847EFF36B
:10115000108372B6D4E7016F456F4D672967A042CF
:10116000E8D11161E6E70121D160E3E7F110400029
:101170004E4456448C054020A524400038B5044612
:101180000D46282200210F4B98476560EFF3108130
:1011900072B60D4B23600D4B1B6873B10C4B1B6873
:1011A000DA69DC619461E261A361084A1368013382
:1011B000136081F31088002038BD054B1C60A461CA
:1011C000E461F2E7613340004E445644E4044020B9
:1011D000C0044020F8B5EFF3108672B68468056A43
:1011E00024EA05051D6002F00207056A0DB124EA34
:1011F000050447B10C40A14206D0069CBCB90720AB
:1012000086F31088F8BD0C40002CF6D012F0010FC8
:1012100045D043692BB103691BB929430162002002
:10122000EEE7836823EA010181600020E8E71D4CB6
:10123000246801B10CB10720E2E71B4C24681B4D68
:10124000A566A167C4F88020E367E066D4F8B030F3
:101250000133C4F8B0304369D3B9046124676467CB
:10126000436901334361072323630123A363069B7F
:10127000E3640C4A13680133136086F31088204638
:101280000B4B9847EFF3108672B6D4F88400B7E79B
:10129000036923675A6F626714675C67E0E70020A1
:1012A000AEE700BF8C05402090054020F1104000C3
:1012B000D92540002DE9F04F83B0EFF3108572B6C9
:1012C00012F0020F11D0436933B1036923B9036AE5
:1012D00063EA0101016202E083681940816085F3DD
:1012E0001088002003B0BDE8F08FD0F824B08668E5
:1012F0000E438660036A13B123EA010101620446CA
:1013000042690369002B00F0B380012A0CD0002051
:101310002061644F3968013139609E468046074636
:101320000090CDF804B04AE09A6FD3F8801011F025
:10133000020F05D006EA0200824203D000268AE0AE
:1013400006EA0200002800F09880D86F066011F0CD
:10135000010F03D0A16821EA0202A26000262661E3
:1013600066619E66C3F884604E490A6801320A606D
:1013700085F3108818464C4B9847EFF3108572B6EA
:1013800069E08B4601E006EA010B186B072878D06C
:10139000196F8B4231D0D3F87490C1F87490C9F8AA
:1013A0007010734526D0616901396161009939B3C4
:1013B000C8F870301F6798466346013A24D085F319
:1013C0001088EFF3108572B6E16821B1E7606269B9
:1013D000A3681E437346D3F870C0996FD3F880A0FA
:1013E0001AF0020FCFD031EA0600CAD0196B0729D4
:1013F000CED1E1E7DEF870E0D5E74FF0000ED2E79E
:101400001F6798460093D7E70098DDF804B0C4F84A
:1014100010E0236A2BB1A26822EA0303A360002331
:10142000236285F3108870B11E4E1F4F056FEFF3D6
:10143000108372B632680132326083F31088B84785
:101440002846002DF2D1EFF3108572B6154A1368C5
:10145000013B1360012685F31088BBF1000F01D01A
:101460002046D847002E3FF43CAF104B984738E752
:101470002AB10123C3600026EDE70026EBE7002632
:10148000E9E7BBF1000F97D0D86F06601AF0010FA3
:1014900003D0A06820EA0101A1609F66C3F88470B0
:1014A00076E700BF8C054020A52440006924400059
:1014B00008B50F4B98470F4B984700230E4A13600F
:1014C0000E4A13600E4A13600E4A13600E4A1360F0
:1014D0000E4A13600E4A13600E4A13600E4A1360E0
:1014E0000E4A13600E4A13600E4A136008BD00BF17
:1014F000F522400055284000D0044020E004402060
:10150000EC044020CC044020C0044020E4044020EF
:10151000E8044020DC044020D4044020F0044020B3
:10152000C8044020C404402010B50F4B1B6813F1C1
:101530000F3F0BD04FF0F0320B4B1A600B4B98471C
:101540000B4B98470B4A136801331360064C4FF05E
:10155000F0332360084B1868084B9847002323603A
:10156000074B984710BD00BF00004020F12A400003
:10157000B11440008C054020D80440205530400074
:10158000812B400010B5EFF3108372B6846E1B4AB6
:10159000944202D083F3108810BDD0F8B0208A4264
:1015A000F8D1C26E002AF5D0146815498C42F1D1E9
:1015B000D1690029EED000218166D1690139D1615C
:1015C00091B99161026B0D2AE4D11D22C0F88420EB
:1015D0000C490A6801320A6083F310880A4B984765
:1015E000EFF3108372B6D5E7016F446F4C67216744
:1015F0009469A04208BF9161E4E700BF85154000EF
:101600004554554D8C054020A524400070B5044636
:10161000EFF3108372B60D490A6801320A600126A1
:101620000B4DD4F8A40050B1866083F31088A8470E
:10163000EFF3108372B6D4F8A420002AF1D1034945
:101640000A68013A0A6083F3108870BD8C05402057
:101650004919400070B504460E4615463422002153
:10166000114B984766602561EFF3108172B60F4BFE
:1016700023600F4A0F4B1A600F4B1B6873B10F4B5F
:101680001B685A6A5C621462626223620A4A1368C7
:101690000133136081F31088002070BD074B1C607C
:1016A00024626462F2E700BF613340004554554D47
:1016B0000D16400074054020C4044020C80440209A
:1016C00070B5EFF3108272B63C4B1C6883680BBB9D
:1016D00001238360C4607CB10369012B10D0D4F86E
:1016E000A43093B1196B1863C8620163C362D4F864
:1016F000A0300133C4F8A03082F31088002070BD00
:10170000E36A436120238362E9E7C4F8A400C0626E
:101710000063ECE7C568AC4204D049B982F3108895
:101720001D2070BD0133836082F31088002070BDDE
:10173000234B1B681BB182F310881D2070BD214B09
:10174000A366E066D4F8B0300133C4F8B030C369A2
:10175000CBB9846124676467C3690133C3610D2316
:1017600023630123A363E16415490B6801330B6014
:1017700082F310880369012B0CD02046124B984746
:10178000D4F8840070BD836923675E6F6667346731
:101790005C67E1E7E36A826A9A4288BF8362E36A30
:1017A000D5F89C20934238BFC5F89C30E16AEB6ABB
:1017B0008B42E2D92846054B9847DEE7900540204A
:1017C0008C05402085154000D92540007118400047
:1017D000F8B5EFF3108472B6C769012F09D9022F4B
:1017E0000AD081690A6F204D2B6801332B600D46AA
:1017F00013E084F3108835E083691A6FD16ADB6ADD
:10180000994238BF826184F310882BE0C569AF42EA
:1018100010D1126F1D469A4210D0D66ACB6A9E42F2
:1018200038BF114684F31088EFF3108472B68369D1
:101830009D42EBD0C7691A6F1946EBE70A4D2B683A
:10184000013B2B608A4209D00D6F4B6F6B671D67A0
:10185000536F0A674B6719675167816184F310887A
:10186000024B98470020F8BD8C05402069244000B9
:10187000F8B5EFF3108272B6036B4BB1C162D0F8CA
:1018800098308B4228BF0B46C36382F31088F8BDA3
:101890000D460446264B1E68C76A26490B6802336C
:1018A0000B600E230363012383630023C36482F36D
:1018B0001088214B9847EFF3108372B6E562D4F895
:1018C0009820AA4228BF2A46E26383F31088204664
:1018D0001A4B9847EFF3108272B6154B1B689C4267
:1018E00007D0216B29B9E16ADB6A99420CD8B4426E
:1018F00002D082F31088F8BD0D4B1C60BD42F8D9B0
:101900000F4B43F82140F4E7E06B8142F1D9834269
:1019100007D3074B1C60BD42EBD9094B43F821406C
:10192000E7E7084801238B4001680B430360E0E7C9
:10193000940540208C054020D9254000A524400076
:10194000F40440209C054020F8B5EFF3108272B6F5
:1019500083681BB982F310881E20F8BDC1687F4CD4
:101960002468A14200F0AF807D4C2468002C40F038
:10197000AA8082F310881E20F8BD82F31088002010
:10198000F8BD82F310880020F8BDC36A046B1C63A5
:10199000E362D1F8A440A04208BFC1F8A430A4E09B
:1019A0000369002B40F0A580C36082F310881846BD
:1019B000F8BD6B4803680133036082F31088D1F8E7
:1019C000A40070B10346202503E0DB6A984209D0E9
:1019D00043B11A69012AF8D19A6A954228BF15467F
:1019E000F3E72025EFF3108272B65D480368013BF0
:1019F0000360C1F89C50AE4228BF2E46E369012B1C
:101A000011D92369012B7ED1054603680133036098
:101A100082F310882046534B9847EFF3108272B63A
:101A20002B68013B2B60A56945B12369012B23D1AC
:101A3000E768EB6A63612023A36268E048490B68AA
:101A400001330B6082F310882023A362E068C36A2D
:101A50009E4202D03146444B9847EFF3108372B652
:101A60003F490A68013A0A600025E56083F310885F
:101A70003E4B98472846F8BD002748E0D5F8A4100B
:101A8000086B0C63C4622063E16248E02B6FA361C2
:101A9000696F59670B674EE0E3693BB9FB6A9E4289
:101AA00056D031463846304B984751E020462D4BB2
:101AB0009847EFF3108272B6A3690BB1DB6AA36299
:101AC00082F31088EAE7013B8360002B7FF455AF77
:101AD00000293FF456AFD1F8A030013BC1F8A03047
:101AE000002B7FF452AFC1F8A4308369002B3FF480
:101AF00057AF0446D1F894600369012B3FF459AF06
:101B0000C369012B8FD9A569002D97D00027D5F87F
:101B1000A030002BB2D1C5F8A440E46224630133A5
:101B2000C5F8A0300123A360E560E369013BE361F0
:101B3000002BABD1A3610023AB66C5F88430084904
:101B40000B6801330B6082F310882369012BA3D04B
:101B50002846074B98470020F8BD00BF900540205D
:101B60008C054020D11740007118400069244000C6
:101B7000A524400010B5EFF3108372B6846E1E4AA0
:101B8000944202D083F3108810BDD0F8B0208A426E
:101B9000F8D1C26E002AF5D0146818498C42F1D1F0
:101BA000D16A0029EED000218166D16A0139D16263
:101BB000A1B99162016B0529E4D11269BAB10B2276
:101BC000C0F884200E490A6801320A6083F3108845
:101BD0000C4B9847EFF3108372B6D3E7016F446F55
:101BE0004C672167946AA04208BF9162E2E70A222B
:101BF000C0F88420E6E700BF751B400055455551ED
:101C00008C054020A5244000F8B504460F46154633
:101C10001E463C220021164B98476760A560AD0028
:101C2000069BB3FBF5F3A66103FB0565E561266240
:101C300066626361E360EFF3108172B60D4B23605F
:101C40000D4B1B6873B10D4B1B685A6B5C631463BF
:101C500062632363084A13680133136081F31088B9
:101C60000020F8BD054B1C6024636463F2E700BFED
:101C70006133400055455551CC044020EC044020D0
:101C8000F8B5EFF3108572B6C46A0369002B00F053
:101C9000B3801CBB036A87681E1D1B680B60012F85
:101CA0000DD97B1E0BD0324652F8044B41F8044F3D
:101CB000013BF9D16FF040433B4406EB8306C36917
:101CC0009E4208BF86690662436901334361036926
:101CD000013B036185F310880020F8BD876AD7F8BF
:101CE0008030012B59D0036AD0F808C003F1040EEC
:101CF0001B680B60BCF1010F0ED9BCF101030BD0C6
:101D0000724652F8046B41F8046F013BF9D16FF051
:101D1000404363440EEB830EC3699E4508BFD0F871
:101D200018E0C0F820E0504B1A6801321A601A68B7
:101D3000013A1A60F96F426AD0F808E0171D0B6883
:101D40001360BEF1010F0ED9BEF101030BD00431B7
:101D500051F8046B42F8046F013BF9D16FF0404336
:101D6000734407EB8307C3699F4208BF87694762D3
:101D7000836A013C3AD100228262C46200249C66DC
:101D8000C3F8844038490A6801320A6085F3108834
:101D90001846364B98472046F8BDFA6F8368166898
:101DA0000E60012B08D9013B06D0043252F8046BB7
:101DB00041F8046F013BF9D1013C11D1002383624A
:101DC000C4620024BC66C7F88440274A1368013304
:101DD000136085F310883846244B98472046F8BD99
:101DE0003B6F83627A6F5A671367E9E71A6F826203
:101DF000596F51670A67C0E71AB985F310880A203E
:101E0000F8BD194B1B681BB185F310880A20F8BD7B
:101E1000174B1E68174BB366F066F1670023C6F8D0
:101E20008030D6F8B0300133C6F8B030ACB9866235
:101E3000366776670134C462052333630123B363D5
:101E4000F264094A13680133136085F31088304641
:101E5000094B9847D6F88400F8BD836A3367596FF9
:101E600071670E675E67E5E78C054020A52440009A
:101E700090054020751B4000D9254000F8B5044668
:101E8000EFF3108672B6C56A4369002B59D03DBB8B
:101E9000013B4361036901330361426A8768151D91
:101EA0000B681360012F0DD97B1E0BD0043151F844
:101EB000040B42F8040F013BF9D16FF040433B445F
:101EC00005EB8305E3699D4208BFA5696562A36BC5
:101ED00086F31088002B73D0204698470020F8BD69
:101EE000806A013D25D10023A362E5620023836659
:101EF000C26FA3680D681560012B08D9013B06D09D
:101F0000043151F8045B42F8045F013BF9D100232E
:101F1000C0F88430A56B2C4A13680133136086F334
:101F200010882A4B9847002D4CD02046A847002007
:101F3000F8BD036FA362036FA362426F5A67136712
:101F4000D3E71AB986F310880B20F8BD1E4B1B6827
:101F50001BB186F310880B20F8BD1D4B1F681D4B6D
:101F6000BB66F866F9670023C7F88030D7F8B03051
:101F70000133C7F8B030E5B987623F677F67013545
:101F8000E56205233B63A56B0123BB63FA640E4A3C
:101F900013680133136086F3108838460E4B984758
:101FA000D7F8843013B90DB12046A847D7F884007C
:101FB000F8BD836A3B67596F79670F675F67DEE734
:101FC0000020F8BD0020F8BD8C054020A52440006D
:101FD00090054020751B4000D925400010B5EFF357
:101FE000108372B6846E1B4A944202D083F3108829
:101FF00010BDD0F8B0208A42F8D1C26E002AF5D0C8
:10200000146815498C42F1D111690029EED00021E4
:10201000816611690139116191B9D160026B062A9B
:10202000E4D10D22C0F884200C490A6801320A600C
:1020300083F310880A4B9847EFF3108372B6D5E705
:10204000016F446F4C672167D468A04208BFD1601C
:10205000E4E700BFDD1F4000414D45538C054020A3
:10206000A524400070B504460E46154620220021E6
:102070000F4B98476660A560EFF3108172B60D4B69
:1020800023600D4B1B6873B10C4B1B689A699C61F4
:102090005461A2616361084A13680133136081F3DC
:1020A0001088002070BD054B1C606461A461F2E7DC
:1020B00061334000414D4553E0044020D0044020AE
:1020C00038B5EFF3108272B6836823B949B982F349
:1020D00010880D2038BD013B836082F310880020FA
:1020E00038BD184B1B681BB182F310880D2038BD1A
:1020F000154B1C68154BA366E066D4F8B03001336D
:10210000C4F8B0300369B3B9C46024676467036975
:1021100001330361062323630123A363E1640949B7
:102120000B6801330B6082F310882046084B9847F8
:10213000D4F8840038BDC36823675D6F65672C677A
:102140005C67E4E78C05402090054020DD1F4000DF
:10215000D925400038B50446EFF3108272B6036902
:1021600043B9836801338360C36982F31088BBB1CC
:10217000984715E0C068013B14D10021E16023615C
:1021800000238366E569C0F8843009490B68013390
:102190000B6082F31088074B98470DB12046A84783
:1021A000002038BD016FE160456F4D672967E6E7A4
:1021B0008C054020A52440002DE9F84F04468B46AD
:1021C000924699460A9D0B9E0C9F3246EF21284667
:1021D000DFF81C81C047B42200212046C047C4F864
:1021E00028B0C4F844A0C4F84890E5606661E7628E
:1021F000C4F894700E9BA361E3612023C4F89C3063
:10220000013E354425610D9BE363C4F898300323F8
:1022100023632C4B6365A4652B4920462B4B9847C1
:10222000EFF3108172B62A4B23602A4B1B6803BB65
:10223000294B1C60C4F88840C4F88C40254A1368B8
:1022400001331360254A1368013313600F9B012B80
:102250001CD081F31088EFF3108372B61F490A680F
:10226000013A0A6083F310881D4B98470020BDE8AF
:10227000F88F194B1B68D3F88C20C3F88C40C2F838
:102280008840C4F88C20C4F88830D7E7EFF3058382
:10229000144A12681343B3F1F03F06D3124B1D6882
:1022A00075B1EE6BEB6AEB6301E00026354681F316
:1022B000108820460D4B9847002DD7D0EE63D5E708
:1022C0000026F4E79527400065234000212C4000BC
:1022D00044524854840540207C0540208C05402011
:1022E000692440000000402094054020A5244000BF
:1022F0006133400010B500240E4B1C600E4B1C6077
:102300000E4B1C600E4B1C6020220E4B1A6080226C
:1023100021460D480D4B98470D4B1C600D4B1C6022
:102320000D4B1C600D4B1C600D4A136843F080730D
:10233000136010BD90054020940540207805402092
:102340009C05402098054020F40440206133400063
:102350007C054020840540208C05402074054020E9
:102360008005402038B5194B1C68EFF3108372B616
:10237000D4F8AC2083F3108812B100212046904796
:10238000636CA06C9847124B1B680BB120469847B2
:10239000EFF3108372B6D4F8AC5001222263A2632B
:1023A0000022E2640B490A6801320A6083F3108854
:1023B000EFF3148323F0040383F3148815B1012190
:1023C0002046A8472046044B984738BD900540203A
:1023D000740540208C054020D925400010B5EFF34E
:1023E000108272B61B4B1C684CB1EFF305831A497F
:1023F00009680B4307D082F31088132010BD82F3C5
:102400001088132010BD154B9C4207D050B1144BBF
:102410001B6853B182F31088132010BD82F310881B
:10242000132010BD82F3108810BD04232363012301
:10243000A3630023C4F88430E06409490B680133C6
:102440000B6082F310882046064B9847D4F884002E
:1024500010BD00BF90054020000040203406402001
:102460008C054020D92540000A4B1B688BB90A4BCC
:102470001A680A4B1B689A420BD04FF08052084BE7
:102480001A60EFF3058323B9EFF3108362B683F389
:10249000108870478C05402090054020940540200E
:1024A00004ED00E038B50446EFF3108572B6436ED4
:1024B000DBB14C303F4B98473F4A1368013B1360F8
:1024C000A36B002B51D1236B002B56D0636B002BD9
:1024D00046D12363E26A394B53F8223043B15A6A3A
:1024E00014625C626262236247E00023C364E3E734
:1024F000324B43F822402462646231490123934005
:10250000086803430B602F4B1B689A4235D22D4B52
:102510001A602D4B1B6803B3D96B8A422DD2DA6A3D
:10252000914205D02949012393400A6813430B6067
:10253000254B1C6085F310881F4B1B68002B33D183
:102540004FF08052224B1A60EFF3058363BBEFF329
:10255000108362B683F3108838BD1B4B1C600CE0FF
:10256000002363630323236307E0236B013B012BF9
:1025700003D9636BCBB9A3632363164B1A6885F346
:102580001088114B1B689A420ED00B4B1B685BB92D
:102590004FF080520E4B1A60EFF3058323B9EFF32F
:1025A000108362B683F3108838BD0023636303236E
:1025B0002363E2E7812940008C054020F404402099
:1025C0007805402098054020940540209C05402037
:1025D00004ED00E09005402070B50446634B1D6893
:1025E000EFF3108672B685421CD0614A1368013B36
:1025F0001360A36B012B21D086F310885D4B1B6801
:102600009D420ED05A4B1B685BB94FF080525A4B1B
:102610001A60EFF3058323B9EFF3108362B683F3F7
:10262000108870BDC36C013B13F1030F02D84C300E
:10263000524B9847E269524B1A60D6E70023A363D6
:10264000E16A236A9C425BD0626A5A6213624D4A15
:1026500052F82120944244D0464B1B689C42CBD177
:10266000494B1A68474B53F82220424B1A60474B9C
:102670001B6813B33E4B1A6801321A6086F3108848
:10268000EFF3108672B61A68013A1A603F4B1A6867
:1026900092FAA2F3B3FA83F33A4951F82310CC6BC0
:1026A00039480068844208D832480160012101FAA3
:1026B00003F322EA0302354B1A6086F310882C4B91
:1026C0001B68002BADD14FF080522B4B1A60EFF3FB
:1026D0000583002BA5D1EFF3108362B683F3108836
:1026E00070BD284A42F82130284B1B68002BB3D01C
:1026F000012202FA01F123EA0103244A1360ABE745
:102700000022204B43F82120012303FA01F1C943A1
:102710001F4A13680B4013601C4A126812B1114023
:102720001A4A1160DBB92022174B1A600022114BA4
:102730001A6086F310880E4B1B68002B7FF471AF74
:102740004FF080520C4B1A60EFF30583002B7FF49F
:1027500068AFEFF3108362B683F3108870BD93FA0D
:10276000A3F3B3FA83F3084A136075E7900540209A
:102770008C0540209405402004ED00E02D29400008
:1027800028064020F4044020980540209C05402065
:102790007805402008B5EFF3108272B6036B042B66
:1027A00007D0836ED0F8B01082F3108803B1984739
:1027B00008BD04490B6801330B6082F31088024B9B
:1027C000984708BD8C054020A5244000114B1B688C
:1027D000EFF3108272B600200F49086063B1196BE5
:1027E00051B9D96999610D480160196A8B4203D0CA
:1027F000D86ADB6B984202D082F310887047084B8E
:1028000043F820100749096853F82110064B196056
:10281000F2E700BF90054020000B40202806402032
:10282000F4044020980540209405402008B5EFF3BB
:10283000108372B604490A6801320A6083F3108873
:102840000248034B984708BD8C05402034064020C1
:10285000A5244000F0B587B000241F4B1C601F4B1F
:102860001C601F4B1C601F4B1C601F4B1C601F4DCE
:102870008022214628461E4B98471E4B1D601E4B4A
:102880001D6080351D4B1D601D4A1E4B1A604FF4A4
:1028900080621D4B1A601D4B1C601F461C4E1D4D57
:1028A0003B6800220592049203930293164B1B6827
:1028B0000193144B1B68009333462A461649174868
:1028C000174CA0470028EBD10023164A1360164A84
:1028D000136007B0F0BD00BF040B40202806402065
:1028E000000B402024064020E8064020A40540209C
:1028F00061334000EC064020A00540203006402017
:10290000F8064020F80A4020F40640202C0640201B
:102910004D495441B12940001C3540003406402047
:10292000B9214000F0064020FC0A40200268531EF6
:1029300013F1030F01D8816901B17047212A28BF23
:102940001F230C4A126802EB83030B4A126893425E
:1029500003D39B1A094A126813441A6832B15169A9
:1029600008615061026141618361E6E70061406195
:102970001860F9E7A005402030064020EC06402012
:10298000826952B10369984208D0416959610B616B
:102990001168884208D00023836170471368984209
:1029A000F9D100231360F6E79A611360F3E70000A2
:1029B000444B984240F085802DE9F04F83B04FF0B2
:1029C0000009DFF820A1C846DFF81CB14F463E4D94
:1029D00049E03E4B1B68CAF8003059E0019729E0F6
:1029E000A368D4F80C9062682260002A2DD0C4F845
:1029F00018D0246100942C6081F310880BB14846F4
:102A00009847EFF3108672B6C5F80080009BA3428A
:102A10001ED086F31088EFF3108172B6019CECB1E2
:102A200023690097A342D9D062695A61136101AA50
:102A30009A6101932368202BD2D9203B2360C4F8EC
:102A400018D0246100943B46D5E7C4F81880D2E73B
:102A5000C4F8188020461E4B9847DAE7DBF80030B0
:102A60000BB381F31088EFF3108172B6DAF800200F
:102A7000136801930BB101A89861C2F80080DAF8DD
:102A800000300433CAF80030124A12689342A0D0D2
:102A9000CBF8007081F31088EFF3108172B6019CBF
:102AA000002CBDD1DAE70C480323036301238363C1
:102AB0000A4A13680133136081F31088084B984762
:102AC000D1E770474D495441E8064020EC064020CC
:102AD0002D29400030064020340640208C0540203F
:102AE000D9254000A0054020240640200000000019
:102AF00072B61D481D4901F1040101604FF0E0204C
:102B00001B49C0F8081D1B481949096801601A488B
:102B1000016841F0010101604FF0E0204EF65F21B5
:102B200041614FF0070101614FF00001C0F8181D2D
:102B30004FF07F41C0F81C1D1049C0F8201D7047A0
:102B4000FFF7FEBFFFF7FEBFFFF7FEBF01B5BDE811
:102B50000140704701B500F083F8BDE801407047BF
:102B6000FFF7FEBFFFF7FEBFD8044020B05740205C
:102B70000000400088054020001000E00000FF40F9
:102B80004FF00000224A106062B64FF080504FF0C4
:102B9000E021C1F8040DBFF34F8FBFF36F8FFEE745
:102BA0001C481D4A4FF00003016869B10360EFF350
:102BB000098C2CE9F00F194C4CF804ED2568C1F88C
:102BC00008C00DB18D61236072B6116889B10160D2
:102BD00062B64F68114C8D6907F101074F6025609F
:102BE000D1F808C05CF804EBBCE8F00F8CF309885E
:102BF000704772B61168016009B962B6F9E74FF023
:102C000000674FF0E028C8F8047D62B6E1E70000F5
:102C10008C05402090054020940540202806402047
:102C2000026922F00702A2F144026FF0020313606E
:102C30004FF0000353609360D3601361536193615D
:102C4000D361136253629362D362136353634FF091
:102C5000FF339363D1634FF08073136482607047D6
:102C60002249086800F101000860214B1A683AB156
:102C7000A2F101021A601AB91E4B4FF00100186050
:102C80001D490868026822B11C4B4FF001021A600E
:102C900008E000F104001A4B1A68904201D1194B68
:102CA00018680860134B1A6812B914490868D0B143
:102CB0002DE901401149086808B1FFF7B7FD0D4B38
:102CC0001A6872B1FFF782FD0F48016849B90F48D1
:102CD00001680F4A13680F484FF08052994200D0A4
:102CE0000260BDE80140BFF34F8F7047040B4020E6
:102CF00028064020000B4020A0054020240640204C
:102D000030064020EC0640208C05402090054020F5
:102D10009405402004ED00E0C06C7047806C704763
:102D20002DE9F041044688460E4B9847054620465B
:102D30000D4B9847054013D00C4C04F1600603E09E
:102D4000B4420DD010345DB120684045F8D16168BF
:102D50002942F5D0E3689847636825EA0305EFE761
:102D6000BDE8F081192D40001D2D40005004402089
:102D700008B50A210148024B984708BD000E0E40D5
:102D8000212D400008B50B210148024B984708BD92
:102D900000100E40212D400008B50C210148024BC7
:102DA000984708BD00120E40212D400008B51021A3
:102DB0000148024B984708BD00140E40212D4000E9
:102DC00008B511210148024B984708BD00160E4076
:102DD000212D4000FEE7000000B583B0254B264AB8
:102DE0009A4210D0254B234A9A420CD2013B9B1A9F
:102DF00023F00303043313441F4951F8040B42F832
:102E0000040B9A42F9D11E4B1E4A9A420AD2013B48
:102E10009B1A23F0030304331344002142F8041BDC
:102E20009342FBD1184A194B23F07F039360EFF3D1
:102E30001083B3FA83F35B09019372B6BFF35F8F1C
:102E40000022134B1A700199124A136843F470035D
:102E50001360BFF34F8FBFF36F8F29B101220C4B6B
:102E60001A70BFF35F8F62B60B4B98470B4B9847B6
:102E7000FEE700BF00004020003640003404402040
:102E8000B03540203404402000ED00E00000400058
:102E90000400402088ED00E0113340004530400040
:102EA00070B5084C084E094D2368013323600A2091
:102EB000B047002201212846054B98470028F3D04F
:102EC00070BD00BF9C0C4020DD23400080344020BA
:102ED000CD05400070B5094D094C0A4E2B680133F1
:102EE0002B604FF0FF3221463046074B984718B908
:102EF000236801332360F1E770BD00BFC40E40209A
:102F00007434402038344020C508400070B582B089
:102F10000B4C0C4E0C4D2368013323604FF0FF32F5
:102F200001A93046A84740B9019B084A126893425C
:102F300003D10133054A1360EDE702B070BD00BF55
:102F4000A00C4020383440206D08400078344020E8
:102F5000F8B506460D4D0E4F0E4C0FE03B680133A1
:102F60003B604FF0FF3120460B4B984760B9022081
:102F70000A4B984720460A4B984728B9032EEDD0B4
:102F80002B6801332B60ECE7F8BD00BF580D4020E3
:102F9000BC0B4020C40B4020D5094000DD2340007D
:102FA000290A400070B584B0094C0A4E0A4D2368C6
:102FB000013323604FF0FF33009303AB012211462E
:102FC0003046A84710B9039B012BF0D004B070BD68
:102FD000C00B40208034402061054000F8B5064613
:102FE000124D134F134C19E03B6801333B604FF017
:102FF000FF312046104B9847B0B94FF0FF312046C3
:103000000D4B984780B902200C4B984720460C4B3B
:10301000984748B920460A4B984728B9062EE3D06E
:103020002B6801332B60E2E7F8BD00BF980C40200D
:103030007C344020FC0E4020C1064000DD234000CF
:103040003507400008B5024B9847002008BD00BF77
:10305000291540002DE9F04F8DB000240CAB43F84A
:10306000044D1E463423009342F2A0337B4A7C4930
:103070007C487D4DA84723464FF48062314679480D
:10308000DFF88482C0474FF0B40BCDF818B00127A9
:1030900005970494039702974FF4806501950B9B65
:1030A00000932346714A72497248DFF86092C8471C
:1030B00023462A46099631466A48C047CDF818B0DB
:1030C0000597042604964FF0100ACDF80CA0CDF811
:1030D00008A001950B9B00933B46674A67496848E7
:1030E000C84723462A4609995E48C047CDF818B01C
:1030F00005970496CDF80CA0CDF808A001950B9B80
:10310000009302235F4A60496048C84723462A4625
:1031100009995448C047CDF818B0059704944FF06A
:10312000080ACDF80CA0CDF808A001950B9B0093E0
:103130000323574A57495848C84723462A460999FE
:103140004848C047CDF818B005970494CDF80CA0B6
:10315000CDF808A001950B9B009333464C4A4F498C
:103160004F48C84723462A4609993E48C047CDF8EC
:1031700018B0059704940396029601950B9B009353
:103180000523484A48494948C84723462A460999D9
:103190003448C047CDF818B005970494CDF80CA07A
:1031A000CDF808A001950B9B00930623404A4149A6
:1031B0004148C84723462A4609992A48C047CDF8BE
:1031C00018B005970494CDF80CA0CDF808A001958F
:1031D0000B9B00930723364A38493948C847234692
:1031E0004FF4C872DDF8249049461E48C0473C237E
:1031F00001934FF4C87300930B9B3A463149324810
:10320000324DA84720233A4631493248324DA8472B
:10321000282232493248334B9847342322463249D8
:103220003248334DA8472346642249460D48C047DB
:10323000304D30230193642300930B9B32462E497B
:1032400028462E4FB8472246494628462C4B9847D9
:103250000B982C4B98470DB0BDE8F08FE40F402041
:1032600030354000C80E4020CD034000A12E400064
:103270003C35400084334020D52E40004835400086
:103280005C0D40200D2F400054354000080B4020BD
:10329000512F400060354000300F40206C35400019
:1032A000A40C4020A52F400078354000D8344020A1
:1032B000DD2F400084354000100E40209035400046
:1032C000E40B40209C35400038344020810740000A
:1032D000A4354000C40B40201D094000B03540001B
:1032E00080344020A9044000C0354000FC0E40203E
:1032F000FD054000A8344020C83540002D024000A4
:10330000D501400015034000410340004D0A400034
:1033100070B50F4E0F4D761BB61018BF002405D0A8
:10332000013455F8043B9847A642F9D10A4E0B4D9B
:10333000761B00F053F9B61018BF002406D00134F4
:1033400055F8043B9847A642F9D170BD70BD00BF47
:10335000E8354000E8354000F0354000E8354000F1
:1033600070B4860746D0541E002A41D0CAB2034624
:1033700002E014F1FF343BD303F8012B9D07F8D191
:10338000032C2ED9CDB245EA05250F2C45EA05457B
:1033900019D903F110022646103E0F2E42F8105C98
:1033A00042F80C5C42F8085C42F8045C02F110023E
:1033B000F2D8A4F1100222F00F0204F00F04103230
:1033C000032C13440DD91E462246043A032A46F81C
:1033D000045BFAD8221F22F003020432134404F0E3
:1033E00003042CB1C9B21C4403F8011B9C42FBD15D
:1033F00070BC704714460346C2E700BF024B13B1CE
:10340000024800F005B87047000000001D3440007D
:10341000002301461A46184600F01EB838B50A4C7B
:103420000A4D641BA4100AD004F18043013B05EB54
:103430008305013C55F804399847002CF9D1BDE8C3
:10344000384000F0D5B800BF00364000FC354000E1
:10345000704700BF704700BF2DE9F8432C4D06466A
:10346000286898460F469146FFF7F2FF294B1C68E3
:10347000D4F84831002B3ED05A681F2A1CDC02F1D8
:10348000010E76B103EB82010124C1F88890D3F8D4
:10349000880194402043022EC3F88801C1F80881B6
:1034A00023D00232C3F804E0286843F82270FFF703
:1034B000D1FF0020BDE8F883174B0BB34FF4C87061
:1034C000AFF300800346D8B1D4F848210260002150
:1034D00041600A46C4F848014FF0010EC0F8881157
:1034E000C0F88C11002EDCD0CCE7D3F88C110C4343
:1034F000C3F88C41D5E704F5A673C4F84831BBE79F
:103500002868FFF7A7FF4FF0FF30BDE8F88300BF42
:1035100030044020D8354000000000005379737417
:10352000656D2054696D6572205468726561640030
:103530006279746520706F6F6C20300074687265FA
:10354000616420300000000074687265616420319D
:1035500000000000746872656164203200000000A1
:1035600074687265616420330000000074687265DD
:103570006164203400000000746872656164203565
:10358000000000007468726561642036000000006D
:10359000746872656164203700000000717565759C
:1035A0006520300073656D6170686F726520300052
:1035B0006576656E7420666C61677320300000006C
:1035C0006D75746578203000626C6F636B20706F6E
:1035D0006F6C20300000000008004020F8B500BFEC
:1035E000F8BC08BC9E467047FD3340008D0140008A
:1035F000F8B500BFF8BC08BC9E46704769014000A2
:10360000F0F0F0F00100000000000000F4024020A3
:103610005C034020C40340200000000000000000C4
:10362000000000000000000000000000000000009A
:10363000000000000000000000000000000000008A
:10364000000000000000000000000000000000007A
:10365000000000000000000000000000000000006A
:10366000000000000000000000000000000000005A
:10367000000000000000000000000000000000004A
:10368000000000000000000000000000000000003A
:10369000000000000000000000000000000000002A
:1036A000000000000000000000000000000000001A
:1036B00001000000000000000E33CDAB34126DE6B7
:1036C000ECDE05000B000000000000000000000020
:1036D00000000000000000000000000000000000EA
:1036E00000000000000000000000000000000000DA
:1036F00000000000000000000000000000000000CA
:1037000000000000000000000000000000000000B9
:043A30008C35402071
:0400000500402DD9B1
:00000001FF
