:020000040040BA
:10000000D0344020A5134000A3134000A3134000A8
:10001000A3134000A3134000A313400000000000FE
:10002000000000000000000000000000A3134000DA
:10003000A313400000000000A3134000A3134000DE
:10004000A3134000A3134000A3134000A3134000D8
:10005000A3134000A3134000A3134000A3134000C8
:10006000A31340000000000065104000791040001C
:100070008D104000A3134000A3134000A3134000C1
:10008000A1104000B5104000A3134000A31340008E
:10009000A3134000A3134000A3134000A313400088
:1000A000A3134000A3134000A3134000A313400078
:1000B000A3134000A3134000A3134000A313400068
:1000C000A3134000A3134000A3134000A313400058
:1000D000A313400029094000A3134000A3134000CC
:1000E000A3134000A3134000A3134000A313400038
:1000F000A3134000A3134000A3134000A313400028
:10010000A3134000A3134000A3134000A313400017
:10011000A3134000A31340000000000000000000F3
:10012000A3134000A3134000A3134000A3134000F7
:10013000A3134000A3134000A3134000A3134000E7
:10014000A3134000A3134000A3134000A3134000D7
:10015000A3134000A3134000A3134000A3134000C7
:10016000A3134000A313400010B5054C237833B906
:10017000044B13B10448AFF300800123237010BD7A
:10018000C009402000000000744D40000C4B43B1FA
:100190000C480D4910B5AFF300800C48036823B933
:1001A00010BD0A48036833B97047094B002BF7D0DC
:1001B000BDE810401847064B002BF5D0184700BF8C
:1001C00000000000744D4000C4094020744D400000
:1001D00000000000C3688B4203D95B1AC360012092
:1001E0007047002070470000F8B506460F461546D8
:1001F0000021044CA047386004213046A047286005
:10020000F8BD00BFF903400010B50446014B984704
:10021000A06010BDB503400010B50446024B9847DE
:100220002046024B984710BDC10340000902400020
:1002300008B5C9B2014B984708BD00BF190240007C
:1002400010B50446024B98472046024B984710BD14
:10025000C50340000902400008B589B2014B984728
:1002600008BD00BF4102400070B5049E01604260BD
:1002700083600024044DE0B2A8473319C360013401
:10028000072CF8D170BD00BF25044000F0B583B045
:100290000F4615461E46C0B21C4B984704463946C9
:1002A0001B4B984730B1E3680A98984228BF18461C
:1002B00003B0F0BDAA68C82303FB02F3154AA2FBF2
:1002C00003239B09E268BF1AB7FBF3F203FB127723
:1002D000DB1BE36000230093019301AA69462046DB
:1002E0000D4B98477368089A03EBC20053F83260CD
:1002F0002B7B6A4629684068B0472B6B002BD2D015
:1003000000229DF82410686B9847CCE72504400034
:10031000D5014000D34D6210E90140002DE9F04FB6
:1003200087B006468B1A0593D0F800900027DFF8B7
:100330005CB0DFF85CA017E00134B368A34210D9C9
:1003400008FA04F395F838201A42F5D0CDF8089051
:100350000193009433462A4605993846D047814692
:10036000EAE70137072F0DD0F8B2D847054690F8D5
:100370003830002BF5D0B368002BF2D000244FF0BA
:100380000108DDE7484607B0BDE8F08F950340005F
:100390008D024000C0EB0010014B03EB8000704762
:1003A000D0474000C0EB0010014B03EB80007047CA
:1003B000D0474000014B1868704700BF64144020CC
:1003C0008154704710B512F0010F06D102F00303FB
:1003D000940803EB8403C15210BD034B034A7621FA
:1003E0000348044CA04700BF8047400048474000F6
:1003F000A0474000B116400011F0030F03D18B0855
:1004000050F82300704710B5024B034AC32103483C
:10041000034CA047B847400064474000A047400055
:10042000B1164000014B03EB00107047DC0940207F
:1004300000B52DED028B83B008EE100A01200A4BA7
:100440009847F0EE487AFEEECF7ACDED017A90F83B
:100450002520BDF904100548054B984703B0BDECB5
:10046000028B5DF804FB00BFA5034000EC094020AF
:100470005902400000B52DED028B83B008EE100A42
:1004800001200A4B9847F0EE487AFEEECF7ACDED88
:10049000017A90F82D20BDF904100548054B9847C6
:1004A00003B0BDEC028B5DF804FB00BFA503400068
:1004B000EC0940205902400010B504460220044BCC
:1004C0009847427D21460348034B984710BD00BF23
:1004D000A5034000FC0940203102400010B504464D
:1004E0000420044B9847427D21460348034B98471C
:1004F00010BD00BFA50340001C0A4020310240008F
:1005000010B582B00023074A1360074A13600093B6
:100510000123064A42F210710548064CA04702B07A
:1005200010BD00BF5C0A4020580A40200000402057
:100530004C0A4020690240000B4B1A680B4B1B68A9
:100540001344834200D9704710B504460146084859
:10055000084B9847054B1860034B1C60322802D9A2
:100560003222024B1A6010BD580A40205C0A40201B
:100570004C0A40201D03400030B583B0064C236870
:100580005D1C2560009313460A46C1B20348044C23
:10059000A04703B030BD00BF08004020984A40008B
:1005A0006517400008B5114B1B88A3B10F4B1B8882
:1005B00013F0010F13D12A200D4B98475A200D4BF1
:1005C00098470A4B1B8801339BB2092B0BD9002299
:1005D000064B1A8008BD0848084B9847E6E70848CC
:1005E000084B9847E7E7014A138008BD600A40209E
:1005F000B9044000DD04400000F87F4531044000AC
:1006000000809E457504400008B5084611461A460C
:10061000014B984708BD00BFAD094000F0B583B05D
:1006200005460C46002301932A4B984213D02A4BCF
:10063000984218D0294B98421DD0294B9D4222D078
:10064000284B9D4227D0284B9D422ED0274B9D42C0
:1006500035D003B0F0BD1F46254E21463846B04781
:100660000028FAD1E9E71F46214E21463846B04717
:100670000028FAD1E4E71F461D4E21463846B04710
:100680000028FAD1DFE71F46194E21463846B04709
:100690000028FAD1DAE71E46164D01A93046A847D0
:1006A0000028FAD1019B2370D3E71E46114D01A902
:1006B0003046A8470028FAD1019B2370C9E71E469F
:1006C0000C4D01A93046A8470028FAD1019B2370A0
:1006D000BFE700BF00080E40000A0E40001A0E409F
:1006E000001C0E40004002400080024000C002405A
:1006F0007F1240008B13400070B50C462A4B984285
:1007000013D02A4B984219D0294B98421FD0294B1D
:10071000984225D0284B98422BD0284B984231D074
:10072000274B984237D0002070BD1E46254D2146EC
:100730003046A8470028FAD1012070BD1E46214D41
:1007400021463046A8470028FAD1012070BD1E4638
:100750001C4D21463046A8470028FAD1012070BD23
:100760001E46184D21463046A8470028FAD10120E0
:1007700070BD1E46144D21463046A8470028FAD1C8
:10078000012070BD1E46104D21463046A847002866
:10079000FAD1012070BD1E460B4D21463046A847B8
:1007A0000028FAD1012070BD00080E40000A0E405A
:1007B000001A0E40001C0E40004002400080024023
:1007C00000C002406D1240007513400010B58AB0A1
:1007D00000238DF804308DF8053001228DF80620B5
:1007E0008DF807208DF808208DF809208DF80A3043
:1007F0008DF80B308DF80C304FF6FF71ADF80E1000
:100800008DF810308DF811308DF812308DF81330CE
:100810008DF8143002218DF815108DF816108DF812
:1008200017208DF818206FF0604107918DF8202077
:100830008DF821308DF822208DF823308DF824306A
:100840008DF825300B4C01AA0B4920460B4B9847DD
:1008500020460B4B98470B4B2022C3F8842183F88A
:1008600025235A602268536D43F0C44353650AB090
:1008700010BD00BF640A402000400340F10C40005E
:10088000650F400000E100E070B586B00E20184E04
:10089000B047184D184B1D60184A194B1A60194A79
:1008A000194B1A604FF4E1330093C02301934FF4C6
:1008B000006302930024039404940E20B047134A6B
:1008C00069462846124B98472846124B98472846B7
:1008D000114B9847114E336821469868104DA84730
:1008E000336821465868A8470E4B984706B070BD3C
:1008F000E911400000800240A4144020F9064000A5
:10090000A01440201D0640009C14402080D1F00817
:1009100015134000691340006F134000140040207D
:100920005D194000CD07400000B583B0184B1B682F
:100930001A6D0192019A12F0007F0AD1019B13F007
:10094000005F12D1019B13F0804F17D103B05DF807
:1009500004FB4FF000721A650D480E4B98470E4885
:100960000E4B98470E4B9847E8E7094B1B684FF032
:1009700000521A650B48094B9847E3E7044B1B6884
:100980004FF080421A650848044B9847DEE700BFE5
:10099000640A40207B0F4000DC4A4000651740009D
:1009A000CD0740000C4B4000544B400010B584B0C4
:1009B000002300934FF408030193009C114B03EABA
:1009C000804020430090019B62F31343019342B1A6
:1009D0000B4602A8114413F8014B00F8014B8B425F
:1009E000F9D1094C002269462046084B98472368F4
:1009F0009A6912F0020F02D10122C3F8D02004B08C
:100A000010BD00BF0000FC1F640A4020910F400091
:100A100010B51048104B98473E2100200F4B9847C7
:100A20000F4CA0470028FCD00E4B98470E4A0F4BA6
:100A30009A620F4CA0470028FCD002200D4B98472B
:100A400000200D4B98470D4B98470248024B9847A2
:100A500010BD00BF80D1F00879154000651140003D
:100A6000B9114000C9114000013F182000060E4096
:100A7000D9114000C9104000011140006D14400020
:100A80002DE9F04180B90C469046002A0FDD8F1801
:100A9000084E094D306821462B6898470134BC4206
:100AA000F8D14046BDE8F0814FF0FF38F9E78046C5
:100AB000F7E700BFA41440209C144020013802280E
:100AC00015D82DE9F0410E4614469AB10D46DFF8CF
:100AD00038800C4FD8F8000015F8011B3B68984788
:100AE00000280ADBA81B013CF4D1BDE8F0814FF0DF
:100AF000FF3070471046BDE8F0814FF0FF30BDE891
:100B0000F08100BFA0144020A414402010B54FF481
:100B10000042634B5A60A3F54563624A5A60A2F5EE
:100B200080725A60BFF34F8FBFF36F8F5E4BD3F865
:100B3000902222F00102C3F89022D3F8942222F0EE
:100B40000102C3F89422BFF34F8FBFF36F8F0A20C7
:100B5000564CA0470B20A0470C20A0471020A047D0
:100B60001120A047524B4FF400021A61C3F8A02095
:100B70001A63504A4FF400711161C2F8A01011635A
:100B80005961C3F8A0105966C3F8901059651962ED
:100B9000C3F88410186F20F400701867586F20F4A1
:100BA00000705867C3F8C010C3F8D410C3F8B01071
:100BB0004FF400111966C3F8901059655962C3F8D3
:100BC0008010186F20F400101867586F20F4001080
:100BD000586759603849D1F8143143F01003C1F80F
:100BE0001431364B10211966C3F8901059655962BB
:100BF000C3F88010186F08431867586F0843586788
:100C0000596008211966C3F8901059655962C3F8F4
:100C10008010186F20F008001867586F20F0080047
:100C20005867596004211966C3F8901059655962D4
:100C3000C3F88010186F20F004001867586F20F078
:100C400004005867596003F5C06301211961C3F8B6
:100C5000A01002211961C3F8A0104FF4805313664D
:100C6000C2F8903053655362C2F88030116F21F49E
:100C700080511167516F1943516753604FF480439E
:100C80001366C2F8903053655362C2F88030116F1A
:100C900021F480411167516F19435167536010BDB2
:100CA00050180E400C08005A00ED00E0E911400019
:100CB000000E0E4000120E400080084000100E4052
:100CC00008B50368074A934203D0074A934204D009
:100CD00008BD2320054B984708BD2520034B9847A6
:100CE000F6E700BF0000034000400340E911400068
:100CF00070B506460C46154601600520824B9847A4
:100D000090210520814B98470520814B984730461C
:100D1000804B9847A36943F00203A3617E4B9C423A
:100D200000F09C807D4B9C4200F0C3800023C4F8FF
:100D3000BC30C4F8C8307A4BE3617A4BE360EB7B9C
:100D40001B0203F4FE432A7C02F07F021343A364D8
:100D5000AB7B1BB1E36843F40003E36062696B782B
:100D600013436361AB781BB1A36943F48043A36170
:100D70006B791BB9A36943F04003A361AB791BB145
:100D8000A36943F01003A3612B7A1B0403F47023BF
:100D900043F0010323622B7B6A7B13436A8943EA96
:100DA0000243A3626B7C1B0103F03003AA7C920018
:100DB00002F00C021343C4F88030EB7C2BB1D4F862
:100DC000803043F00203C4F880302B7D2BB1D4F87F
:100DD000803043F00103C4F88030AB69C4F8903030
:100DE0002B7F2BB1D4F8A03043F00043C4F8A030DF
:100DF000D4F8A0206B7F1B0603F0FE431343C4F816
:100E0000A030AB7F2BB1D4F8B03043F00043C4F82E
:100E1000B030D4F8B020EB7F1B0603F0FE43134341
:100E2000C4F8B03095F820302BB1D4F8C03043F07E
:100E30008043C4F8C030D4F8F02095F821301B0668
:100E400003F07C531343C4F8F0300323E3654FF001
:100E5000FF33C4F8E030C4F8E43070BD4FF6FC72E4
:100E60003149114041F40011C3F884102F49114059
:100E700041F48011C3F888102D49114041F48011CC
:100E8000C3F8A0102B49114041F48011C3F8B010F1
:100E900029491140C3F8AC102848104028490143A3
:100EA000C3F8C01027490A4042F40022C3F8F020DA
:100EB0003CE74FF6FC722449114041F40011C3F89D
:100EC00084102249114041F48011C3F88810204950
:100ED000114041F48011C3F8A0101E49114041F4A3
:100EE0008011C3F8B0101C491140C3F8AC101B4866
:100EF000104013490143C3F8C01019490A4042F495
:100F00000022C3F8F02011E75912400009124000F6
:100F100045124000C10C4000000003400040034067
:100F200007050106330A0500E80D4020680B402044
:100F3000E80B4020E80C4020680A4020680E402062
:100F400000000404E80E4020A81240202810402091
:100F5000A8104020A8114020280F4020281340202E
:100F6000A81340200268936923F00103936102688B
:100F7000936913F0010FFBD170470268936943F046
:100F8000010393610268936913F0010FFBD070476E
:100F900010B403681948834218D01948834229D1F4
:100FA0000C6818481201831884504C685C6001F189
:100FB000080307320244103113F8010B02F8010F45
:100FC0008B42F9D100205DF8044B70470C680E4845
:100FD0001201831884504C685C6001F108030732E9
:100FE0000244103113F8010B02F8010F8B42F9D1C2
:100FF0000020E8E76FF00700E5E700BF00000340CE
:101000000040034028134020680E4020C06C704709
:10101000806C70472DE9F041044688460E4B984796
:10102000054620460D4B9847054013D00C4C04F163
:10103000600603E0B4420DD010345DB12068404535
:10104000F8D161682942F5D0E3689847636825EADA
:101050000305EFE7BDE8F0810D10400011104000DE
:10106000E813402008B50A210148024B984708BD03
:10107000000E0E401510400008B50B210148024B30
:10108000984708BD00100E401510400008B50C210F
:101090000148024B984708BD00120E401510400051
:1010A00008B510210148024B984708BD00140E40B6
:1010B0001510400008B511210148024B984708BDA2
:1010C00000160E4015104000032811D0042812D03D
:1010D00002280CBF4FF480710021084A136B23F4DF
:1010E00040730B431363936E13F0080FFBD07047EC
:1010F0004FF44071F1E74FF40071EEE700060E4047
:10110000174A136B23F0700318431063936E13F0A8
:10111000080F0AD14FF4006311498A6E12F0080FCC
:1011200003D1013BF9D1012070470D4A136B23F025
:10113000030343F002031363936E13F0080F0AD105
:101140004FF4006306498A6E12F0080F05D1013B87
:10115000F9D101207047002070470020704700BF80
:1011600000060E40A0B90E48036A090289B20D4A72
:101170001A400D4B1343194301620246936E13F05C
:10118000010FFBD0064A116A084B0B4313627047EC
:1011900003490B6A064A1A40064B13430B62704719
:1011A00000060E40FCFFC8FF0100370000003701B9
:1011B000FCFFC8FE02003701024B986E00F480303D
:1011C000704700BF00060E404FF00052014B9A627C
:1011D000704700BF00060E40024B986E00F0020000
:1011E000704700BF00060E4000F07F00054BC3F8BB
:1011F0000C01D3F80C2142F01022C3F80C2100207E
:10120000704700BF00060E4041F002010C4B00F198
:10121000100243F822109A6E4FF4807303FA00F024
:10122000024209D14FF4006305498A6E024205D19A
:10123000013BFAD101207047002070470020704721
:1012400000060E404FF4807303FA00F0014B186063
:10125000704700BF00060E404FF4807303FA00F0A1
:10126000014B5860704700BF00060E40436913F001
:10127000020F02D0C161002070470120704743690E
:1012800013F0010F03D083690B7000207047012019
:10129000704710B40B01934214D9C9004B0803EBFB
:1012A000C202B2FBF1F2D3085C1E4FF6FE718C4213
:1012B00001D9012017E0416841F4002141600CE0B0
:1012C000012010E0590801EBC202B2FBF3F2D3088F
:1012D0005C1E4FF6FE718C42F2D8120402F4E0223A
:1012E0001A43026200205DF8044B7047084BC0F8B7
:1012F000E430002343604362836288230360242335
:1013000003604FF4807303604FF400230360704761
:101310000041535570B505460C4616460F4B98478D
:1013200000220F4B1A60A4B13246216828460D4BAB
:101330009847024678B96368A1680B4321690B435B
:10134000E1680B4306490B6069680B436B6010460C
:1013500070BD0122FBE70122F9E700BFED1240005A
:10136000581440209312400040230360704710231C
:1013700003607047436913F0020F04D0C1F3080102
:10138000C1610020704701207047436913F0010FCD
:1013900005D08369C3F308030B6000207047012068
:1013A0007047FEE700B583B0254B264A9A4210D01D
:1013B000254B234A9A420CD2013B9B1A23F003038C
:1013C000043313441F4951F8040B42F8040B9A42AA
:1013D000F9D11E4B1E4A9A420AD2013B9B1A23F0B6
:1013E000030304331344002142F8041B9342FBD14E
:1013F000184A194B23F07F039360EFF31083B3FA7D
:1014000083F35B09019372B6BFF35F8F0022134B26
:101410001A700199124A136843F470031360BFF302
:101420004F8FBFF36F8F29B101220C4B1A70BFF39E
:101430005F8F62B60B4B98470B4B9847FEE700BF98
:1014400000004020744D4000C0094020D0144020CE
:10145000C009402000ED00E0000040000C004020EA
:1014600088ED00E015174000611640003B4B1B6BF8
:1014700003F00303012B1DD083B1022B36D0374B71
:101480001B6B03F07003702B5FD0344B1A6B344925
:10149000C2F302120B68D3400B607047314B5B699B
:1014A00013F0800F14BF4FF400424FF4FA422C4B5C
:1014B0001A60E4E7294B1B6A13F0807F03D02A4AA5
:1014C000274B1A60DBE7294A254B1A60234B1B6A1E
:1014D00003F07003102B05D0202BD0D1224A204BD3
:1014E0001A60CCE7224A1E4B1A60C8E71B4B1B6AE6
:1014F00013F0807F16D01C4A194B1A60174B1B6BD8
:1015000003F00303022BBAD1144A916A926A144879
:10151000C1F30A41036801FB0333D2B2B3FBF2F318
:101520000360ACE7114A0E4B1A600C4B1B6A03F0C8
:101530007003102B05D0202BE0D10B4A084B1A600A
:10154000DCE70B4A064B1A60D8E7054A13680949DD
:10155000A1FB03135B081360704700BF00060E4039
:101560001000402010180E40001BB70000093D007D
:1015700000127A00ABAAAAAA164B984213D9164BAE
:10158000984215D9154B984216D9154B984217D940
:10159000144B984218D9144B984294BF134A144ADA
:1015A000144B1A6070474FF08062124B1A607047FC
:1015B000114A104B1A607047104A0E4B1A60704760
:1015C0000F4A0C4B1A6070474FF00422094B1A6007
:1015D000704700BFBFF35E017FE7BD023FDB1C0425
:1015E000FFCE7B05BFC2DA067FB6390800050004CE
:1015F00000060004000C0E4000010004000200047C
:10160000000300040A4B1B6853B1094B1B681A18EE
:101610000849914208DB1046054A10601846704799
:10162000054A034B1A60F0E74FF0FF30704700BFE8
:101630005C144020FCFF4520D03640204FF0FF30A6
:1016400070474FF400534B600020704701207047F3
:101650000020704700BEFEE770474FF0FF30704734
:1016600008B50B4B98470B4B984700230A4A136069
:101670000A4A13600A4B98470A4B9847074C0A4E90
:101680000A4D2068B047236801332360A847F8E774
:10169000110A40000D0B40006014402064144020EB
:1016A000890840000105400039054000A5054000BB
:1016B00000B50A4C2668054685B01C46F06852B154
:1016C000074B02928DE80A0022462B46054900F09E
:1016D0000DF801F04BF9044B1A46F2E714004020D4
:1016E000A04B4000B04B40009C4B40000EB410B5E6
:1016F00083B005AB064C53F8042B019301462068D8
:1017000000F03CFA03B0BDE8104003B0704700BFE2
:101710001400402070B50F4E0F4D761BB61018BF49
:10172000002405D0013455F8043B9847A642F9D16E
:101730000A4E0B4D761B03F007FBB61018BF0024B2
:1017400006D0013455F8043B9847A642F9D170BD44
:1017500070BD00BF544D4000544D40005C4D4000F2
:10176000544D40000FB400B5074983B004AB08687E
:1017700053F8042B8168019300F000FA03B05DF880
:1017800004EB04B0704700BF14004020844641EAD7
:10179000000313F003036DD1403A41D351F8043BE9
:1017A00040F8043B51F8043B40F8043B51F8043B3B
:1017B00040F8043B51F8043B40F8043B51F8043B2B
:1017C00040F8043B51F8043B40F8043B51F8043B1B
:1017D00040F8043B51F8043B40F8043B51F8043B0B
:1017E00040F8043B51F8043B40F8043B51F8043BFB
:1017F00040F8043B51F8043B40F8043B51F8043BEB
:1018000040F8043B51F8043B40F8043B51F8043BDA
:1018100040F8043B51F8043B40F8043B403ABDD249
:10182000303211D351F8043B40F8043B51F8043BEB
:1018300040F8043B51F8043B40F8043B51F8043BAA
:1018400040F8043B103AEDD20C3205D351F8043B7A
:1018500040F8043B043AF9D2043208D0D2071CBF46
:1018600011F8013B00F8013B01D30B88038060466F
:10187000704700BF082A13D38B078DD010F00303E5
:101880008AD0C3F10403D21ADB071CBF11F8013B55
:1018900000F8013B80D331F8023B20F8023B7BE7A4
:1018A000043AD9D3013A11F8013B00F8013BF9D2CF
:1018B0000B7803704B7843708B7883706046704769
:1018C00070B4860746D0541E002A41D0CAB20346DF
:1018D00002E014F1FF343BD303F8012B9D07F8D14C
:1018E000032C2ED9CDB245EA05250F2C45EA054536
:1018F00019D903F110022646103E0F2E42F8105C53
:1019000042F80C5C42F8085C42F8045C02F11002F8
:10191000F2D8A4F1100222F00F0204F00F041032EA
:10192000032C13440DD91E462246043A032A46F8D6
:10193000045BFAD8221F22F003020432134404F09D
:1019400003042CB1C9B21C4403F8011B9C42FBD117
:1019500070BC704714460346C2E700BF00290CBFA5
:10196000022200224FF4806300F000B82DE9F0431A
:10197000614C256883B004460F4690461E4615B15B
:10198000AB6B002B64D0B8F1020F06D0B8F1010F99
:1019900000F29F80002EC0F29C80636ED80734D581
:1019A0002146284601F090F8216B41B104F1400333
:1019B000994202D0284601F005FA00232363B4F9C6
:1019C0000C300022A26162601A063AD423F44A6302
:1019D00023F00303B8F1020FA3811DD001AB6A46C7
:1019E0002146284601F08CFCA3891843A081002ED3
:1019F00032D1009E304601F0FBFC074600286BD038
:101A0000A38943F08003A38128E0A3899905C7D463
:101A1000A06D01F071FCC3E70025616E002604F1A2
:101A2000430243F002030120A660CE07A381226097
:101A30002261606101D498053ED5284603B0BDE817
:101A4000F0832169284601F0BDF9B4F90C30BDE7F7
:101A5000284601F091F896E7002FCBD0AB6B002B16
:101A600033D0009BB4F90C2027609E421CBF42F487
:101A70000062A281B8F1010F04BF42F00102A2810D
:101A800092B212F00803276166610ED0D1071AD511
:101A9000656E7642002315F00105A661A36009D0AA
:101AA0000025284603B0BDE8F083A360656E15F0FD
:101AB0000105F5D19305C0D4A06D01F01FFC2846A7
:101AC00003B0BDE8F083A660F0E7284601F054F8C3
:101AD000C7E74FF0FF35B0E7DDF80090B14504D01F
:101AE000484601F085FC074620B9B4F90C304FF0A8
:101AF000FF3592E74E4683E7140040202DE9F84F6A
:101B00004B6E9C0493462FD59368126853B30E46D0
:101B1000074602F1080919E920045FEA9A0817D07C
:101B2000043D002401E0A04510D0324655F8041FC2
:101B3000384601F0C3F8431C04F10104F3D100233B
:101B4000CBF80830CBF80430BDE8F88FDBF808306C
:101B50002AF0030AA3EB0A03CBF8083009F10809BD
:101B6000002BD8D10020EAE701F012FA0023CBF8CD
:101B70000830CBF80430BDE8F88F00BF2DE9F04FF6
:101B8000ADB01D468B4690460793069018B1836B07
:101B9000002B00F0F380DBF86430BBF90C00DF07AA
:101BA00081B202D48E0540F1FC808C040AD4DBF8AB
:101BB000643040F4005123F40053ABF80C10CBF820
:101BC000643089B2080740F1B380DBF81030002B95
:101BD00000F0AE8001F01A030A2B00F0B58000235C
:101BE0000DF170090B93119310930393CDF83C9072
:101BF000CA46CDF810B098F800304446FBB1252B0A
:101C000002D11CE0252B03D014F8013F002BF9D1A1
:101C1000A4EB08059DB1109B119ACAF8008001330E
:101C20002A44072BCAF80450119210937ADD002A37
:101C300040F0B084039B10922B44CA460393237850
:101C4000002B00F0E08300204FF000038DF83730C8
:101C500004F1010862780546064603464FF0FF345A
:101C600008F10108A2F12001582900F2DE82DFE824
:101C700011F02102DC02DC022902DC02DC02DC02BF
:101C8000DC02DC02DC0289029502DC02A200BD0259
:101C9000DC029F01A401A401A401A401A401A401E8
:101CA000A401A401A401DC02DC02DC02DC02DC02EF
:101CB000DC02DC02DC02DC02DC02B201DC02DC025F
:101CC000DC02DC02DC02DC02DC02DC02DC02DC0224
:101CD0009701DC02DC02DC02DC02DC029B01DC029C
:101CE000DC025302DC02DC02DC02DC02DC02DC028D
:101CF000DC02DC02DC02DC025A021B02DC02DC0237
:101D0000DC026E021B02DC02DC027302DC02F50163
:101D100082010902D702DC029A02DC02A700DC027F
:101D2000DC022E020AF1080A039B2B44039386E788
:101D30005946069800F0ACFD18BBBBF80C1001F03A
:101D40001A030A2B7FF44BAFBBF90E30002BFFF6C2
:101D500046AFDBF86430DB0705D48F0503D4DBF82E
:101D6000580001F0CBFA2B4642465946069800F03F
:101D70004DFD039003982DB0BDE8F08F00F0FCFE00
:101D800009E7DBF86430D90704D4BBF80C309A05B6
:101D900040F1AA844FF0FF33039303982DB0BDE8C0
:101DA000F08FDBF8580001F0A7FABBF90C0081B204
:101DB000FBE67642079243F0040398F800204FE7D1
:101DC00008969E0600F150840799DD060A4600F148
:101DD000EF83580640F1EC830E880431002701227E
:101DE00007914FF000018DF837100025611C00F0BD
:101DF000168123F08001029156EA070140F0148118
:101E0000002C40F05C83002A40F0B78313F00103FC
:101E1000059300F057840DF1B00B30230BF8413DD2
:101E2000059BA342B8BF234601930DB10133019333
:101E3000029B13F00203099302D0019B023301932A
:101E4000029B13F084030A9340F01782089B019AC7
:101E50009D1A002D40F31182102D40F39084109BA9
:101E6000119AC44ED6461027A2461946069C07E092
:101E700001F1020C0EF1080E0146103D102D11DD8E
:101E8000481C1032072811928EE8C0001090EFDD38
:101E9000002A40F0E481103D102D11464FF0010C56
:101EA000CE46EDDC54466146F2462A44072911929B
:101EB000CAF80060CAF80450109100F3EC829DF853
:101EC00037500AF1080A481C002D40F0DE81099BBA
:101ED000002B00F0F88102320EA90223072811928C
:101EE00010908AE80A0040F3EA81002A40F08C83CF
:101EF0000A9B802B4FF001001146CA4640F0E78153
:101F0000089B019D5E1B002E40F3E181102E9A4D2F
:101F100040F35084D4461027A246069C07E001F106
:101F2000020E0CF1080C0146103E102E11DD481C6B
:101F30001032072811928CE8A0001090EFDD002AE3
:101F400040F09D82103E102E4FF0010E1146CC46FF
:101F5000EDDC5446E2463244BEF1070F11928AE8A6
:101F60006000CDF840E000F369830AF1080A0EF141
:101F700001007146ABE1089613F0200240F08C831B
:101F800013F0100140F01A8313F0400200F01683A2
:101F900007980A460146043106880791002720E782
:101FA000089643F01003E7E7089643F0100308E7AC
:101FB00043F0800398F8002052E6A2F13001002699
:101FC00018F8012B06EB860601EB4606A2F130015C
:101FD0000929F5D946E60896002840F0088443F020
:101FE00010039E0600F14C83DD0600F1F3825806D3
:101FF00040F1F082079DB5F900602A46F7170432D8
:10200000304639460792002871F10002C0F25D8324
:10201000611C9DF837504FF001027FF4EAAE56EA9A
:10202000070100F04D820293012A00F08C82022AFF
:1020300040F05C820B98CB46330906F00F0143EA6F
:1020400007733A091E461746435C0BF8013D56EAF2
:102050000703F1D1A9EB0B030593E1E6002840F05B
:10206000C083990600F16783DA0600F1F1805B0610
:1020700040F1EE80079A136804320792BDF80C20F5
:102080001A80B8E507983D4A08960B9206687822B0
:10209000302104308DF8392043F0020307900027E7
:1020A0008DF8381002229CE60896002899D08DF809
:1020B000375096E798F80020002D7FF4D1AD01202D
:1020C0002025CDE543F0010398F80020C8E50896E7
:1020D000002840F0938329490B919F0600F1E88284
:1020E0000798DE06014600F170825D0640F16D82C0
:1020F0000431068807910027D80740F1228256EA6A
:10210000070100F01E8230218DF8392043F00203D0
:102110008DF83810022264E60896002840F06B83A0
:1021200017490B91D9E7079908960A688DF8482056
:102130004FF000000A468DF837000432012001906C
:10214000079205900DF1480B0293002470E643F0CE
:10215000400398F8002083E598F800206C2A03BF1C
:1021600098F8012043F0200308F1010843F0100320
:1021700076E500BF144C4000244C4000F84B400072
:10218000E44B400007990E680A46002E02F1040253
:10219000FFF60FAE079298F8002061E598F800204E
:1021A00001202B255CE507990896D1F800B04FF087
:1021B00000028DF837200E1DBBF1000F00F0E58204
:1021C000671C00F0C482224600215846019301F0AA
:1021D000DFFB019B002800F0E582A0EB0B020592DB
:1021E000079602939DF83750002419E698F80020CE
:1021F0002A2A08F1010700F0E982A2F13001092939
:10220000B8464FF000043FF62DAD18F8012B04EB53
:10221000840401EB4404A2F130010929F5D921E538
:1022200043F0200398F800201AE50896002840F0B3
:10223000DB82002A00F0E78001218DF848204FF072
:10224000000201918DF8372005910DF1480B7BE7D5
:10225000079A136804320792039A1A60CBE40FAA14
:1022600004992046FFF74AFC002840F03981109974
:10227000119A01F1010CCE46FFE51099119A481C04
:102280009DF83750002D3FF422AE01320DF1370595
:102290000121072811921090CAF80050CAF80410C2
:1022A00040F30881002A40F0BC81099B002B3FF4D9
:1022B0001FAE0EAB022208461C931D92CA46014671
:1022C0000AF1080A01300A9B802B3FF419AE059BE6
:1022D000E41A002C2EDD102CB34D1EDDD646102640
:1022E000069FDDF810A006E0881C0EF1080E1946C6
:1022F000103C102C10DD4B1C1032072B11928EE875
:1023000060001093F0DD002A65D1103C102C4FF0D6
:1023100001001146CE46EEDCF24622440728119217
:10232000CAF80050CAF80440109000F385800AF102
:10233000080A01300599CAF800B00A44072811922A
:10234000CAF80410109040F38280002A40F01881EF
:10235000029B1092580735D5089B01995C1A002CF6
:1023600040F3E780CA46102C40F3188210998F4E34
:10237000069FDDF810B0102506E0881C0AF1080A57
:102380001946103C102C11DD4B1C1032072B1192FA
:10239000CAF80060CAF804501093EEDD42BB103C4E
:1023A000102C4FF001001146CA46EDDC22440728EC
:1023B0001192CAF80060CAF80440109051DD002A5A
:1023C00040F09B81039B089A01998A42ACBF9B18FD
:1023D0005B1803934EE00FAA51463846FFF78EFB79
:1023E000002840F03F811099119A481CCE467FE7A3
:1023F0000FAA59463846FFF781FB60B91099119A28
:10240000481CCA46BDE7119BDDF810B0002B40F018
:10241000D48100231093DBF8643013F0010FBBF874
:102420000C3002D19A0540F1DE805B063FF5B2AC7C
:1024300003982DB0BDE8F08F002A40F00681059A80
:102440001D9201231192CDF870B01093CA460AF183
:10245000080A029B590704D5089B01995C1A002CB5
:1024600081DC039B089901988142ACBF5B181B1863
:10247000039372BB00231093CA46FFF7BCBB0FAA9D
:1024800004992046FFF73AFB50BB1099119A01F1CD
:10249000010ECC4648E5002A40F040819DF83710F7
:1024A000002900F01B8101220DF1370110461D9219
:1024B0001C91CA4601460AF1080A013007E5029B51
:1024C000012A00F09880022A0DD1029300260027ED
:1024D000B0E50FAA04990698FFF710FB0028C9D0B1
:1024E000DDF810B097E7029300260027494600E088
:1024F0005946F20842EA4772F80806F00703074611
:102500001646303356EA070201F8013C01F1FF3B61
:10251000EED1029AD6077FF59DAD302B3FF49AADF0
:10252000023930230BF8013CA9EB010305938B46DC
:1025300076E4039B089A8A42ACBF9B185B1803930E
:1025400098E702224DE4002F08BF0A2E52D3CB4653
:10255000304639460A22002301F06EFF30320BF874
:10256000012D3046394600230A2201F065FF064658
:102570000F4656EA0703EBD16CE50594CB464FE4D2
:102580000FAA04990698FFF7B9FA0028A8D1119A62
:10259000CA465EE70FAA04990698FFF7AFFA00282B
:1025A0009ED1CA46FFF7C0BB244C4000144C4000EB
:1025B0000431166807910122002712E407980146AA
:1025C00004310668079100270BE40E680431079177
:1025D000002791E507990E680A46F717043207921B
:1025E000304639460FE5DBF8580000F087FEBBF8AF
:1025F0000C301AE7029B02930DF1B00B3036012329
:102600000BF8416D05930BE40FAA04990698FFF7A8
:1026100075FA00287FF464AF1099119A481CCA46D5
:1026200051E60FAA04990698FFF768FA00287FF48C
:1026300057AF1099119A481CCA4648E4002A40F046
:10264000918001201146CA4641E60FAA04990698D6
:10265000FFF754FA00287FF443AF1098119A013025
:10266000CA4667E6D346D6E6079E073626F0070237
:1026700002F10801D2E9006707910122FFF7B1BB1F
:10268000079E073626F00706D6E9000106F1080284
:10269000079206460F46B6E4079E073626F0070265
:1026A00002F10801D2E9006707910022FFF799BB08
:1026B000079E073626F0070101F108000790D1E9CF
:1026C000006719E5CB46FFF7ABBB2D25764267EBDC
:1026D00047078DF837500122FFF788BB099BB3B934
:1026E00011460120CA46F2E5DBF8580000F006FE6C
:1026F0004FF0FF330393FFF750BB0FAA04990698DE
:10270000FFF7FCF900287FF4EBAE119AA9E60EABB7
:1027100002221C931D920120CA46D0E50FAA0499FB
:102720000698FFF7EBF900287FF4DAAE1099119ABA
:10273000481CCA46A4E5079A03991368CD170846B2
:10274000043229460792C3E90001FFF754BA5846FC
:102750000796029301F034FC002405909DF8375051
:10276000FFF75EBB0FAA04990698FFF7C7F9002888
:102770007FF4B6AE1099119A481CCA46A7E5109985
:10278000119A204E0131FFF790BB062C28BF06247A
:10279000059407960194DFF870B0D5E41098194EAF
:1027A000013003E605949DF83750079602930446DE
:1027B000FFF736BB8646FFF7CEBB06980FAA5946F1
:1027C000FFF79CF900283FF424AE24E6079998F817
:1027D00001200C68043144EAE474B8460791FFF71D
:1027E0003FBA8DF837503CE48DF8375021E58DF82D
:1027F0003750FFF7F4BB8DF8375091E48DF8375020
:1028000069E400BF144C40000C4C40002DE9F0413D
:102810000C46ADF58D6D8989666EE589199621F0B6
:1028200002010646E069ADF80C1017464FF48061CE
:10283000626AADF80E5098461AAD0023079016A8AC
:1028400009920693009504950291059100F050FDC0
:1028500043463A4669463046FFF790F9051E07DBC6
:102860003046694600F030F9002818BF4FF0FF35B8
:10287000BDF80C305B0603D5A38943F04003A38168
:10288000169800F037FD28460DF58D6DBDE8F081F6
:1028900038B5304B1B6805460C4613B19A6B002ABD
:1028A00038D0B4F90C2093B218070CD52069A8B120
:1028B00013F001021ED0636900225B42A361A26093
:1028C000F0B1002038BDD9063CD5580726D4206980
:1028D00042F00803A3819BB20028E9D103F42072DF
:1028E000B2F5007FE4D02846214600F037FDA389E9
:1028F0002069DDE7990758BF6269A2600028E0D12E
:10290000B4F90C301A06DDD543F04003A3814FF033
:10291000FF3038BD184600F02FF9C2E7216B51B1E6
:1029200004F14003994204D0284600F04BFAB4F970
:102930000C200023236300232069636022F024021B
:102940002060C5E742F0400209232B604FF0FF30C2
:10295000A28138BD14004020024B13B1024800F0A0
:102960000DB8704700000000E92B400008B50620B4
:1029700001F0B6FA0120FEF76DFE00BF002301460C
:102980001A46184601F030BCB1F90C309AB22DE964
:10299000F0410D46110780463AD46A6843F400635B
:1029A000002AAB816FDDAC6A002C49D000229BB2BB
:1029B000D8F80060C8F8002013F4805267D02A6D60
:1029C0005F0705D569682B6B521A0BB1EB6BD21AF6
:1029D0000023E9694046A047441C3CD0B5F90C30BF
:1029E0002A692A6023F400630022AB81DB046A6059
:1029F00047D4296BC8F8006011B305F14003994230
:102A000002D0404600F0DEF900202863BDE8F081E6
:102A10002E69AEB12C682E6091070CBF6B69002344
:102A2000A41BAB600AE0234632466F6AE969404660
:102A3000B8470028A4EB0004064404DD002CF2DCB7
:102A40000020BDE8F081AB8943F04003AB814FF03B
:102A5000FF30BDE8F081D8F800401D2CF3D8194BA9
:102A6000E340DB4313F00103EDD1B5F90C206B60BB
:102A700022F400632969AB81DA042960B9D5002CFE
:102A8000B7D12865B5E7EA6B002A8CDCD8E70123CB
:102A9000E9694046A047431C024602D0AB89AC6AB4
:102AA0008EE7D8F80030002BF8D01D2B01D0162B64
:102AB00002D1C8F80060C3E7AB8943F04003AB81A3
:102AC000BDE8F0810100402038B50D46044608B14C
:102AD000836BBBB1B5F90C0088B16B6EDB0701D419
:102AE000810517D520462946FFF74EFF6B6EDA07A2
:102AF000044602D4AB899B0507D5204638BD044661
:102B0000204638BD00F038F8E4E7A86D00F0F6FB89
:102B1000204638BDA86D00F0EFFBE3E7014900F067
:102B2000AFBB00BFD142400010B5002304468181F5
:102B3000C2810360436083604366036143618361D4
:102B4000194608225C30FEF7BBFE07480749084AD1
:102B5000084B2062E4616162A262E36204F1580002
:102B6000BDE8104000F0C4BB1D3F4000413F4000A5
:102B70007D3F40009D3F400010B50446124800F0E4
:102B8000BBFBA26BD2B904F53B731048C4F8E83222
:102B90000321C4F8E022E063C4F8E4126068042171
:102BA000FFF7C2FF01220921A068FFF7BDFF022243
:102BB0001221E068FFF7B8FF0123A3630248BDE8D4
:102BC000104000F09BBB00BFB41440201D2B400000
:102BD000014800F091BB00BFC8144020014800F03C
:102BE0008DBB00BFC814402038B50A4C0A4D641B89
:102BF000A4100AD004F18043013B05EB8305013C9E
:102C000055F804399847002CF9D1BDE8384002F056
:102C1000A5B800BF6C4D4000684D40002DE9F0475D
:102C200082B080468946144600F054FB012836D015
:102C30004A4604F15C0301A9404601F087FA421CB0
:102C4000064625D0A8B39DF804E000250DF1040A3E
:102C500009E023685A1C226083F800E00135B54280
:102C600027D215F80AE0A368013B002BA360F0DA35
:102C7000A769BB4271462246404602DBBEF10A0FFD
:102C8000E7D101F00BFA431CE8D102B0BDE8F087B0
:102C9000A38943F04003A38102B0BDE8F08709F1A6
:102CA000FF33FE2BC4D85FFA89FE06468DF804E098
:102CB000CBE7484602B0BDE8F08700BF30B5536EA1
:102CC00013F0010FB2F90C30144683B005469AB2E6
:102CD00001D190051CD5900406D4626E43F40053D4
:102CE00042F40052A381626628462246FFF796FF0F
:102CF000636EDA07054602D4A3899B0502D52846F0
:102D000003B030BDA06D00F0F9FA284603B030BD25
:102D1000A06D019100F0F0FAB4F90C3001999AB26B
:102D2000D9E700BFF8B5244F0C46064600F0E4FE94
:102D3000BB685D68C4F57E610F3125F00305294449
:102D400021F47F6121F00F01A1F58054B4F5805F7B
:102D500007DB0021304601F081F8BB682B44984224
:102D600004D0304600F0CEFE0020F8BD614230466F
:102D700001F074F801300DD0104BBA6819682D1BA2
:102D800045F001053046091B5560196000F0BAFE98
:102D90000120F8BD0021304601F060F8BA68831ABE
:102DA0000F2BDEDD064C0549246843F00103001BB0
:102DB00053600860D5E700BFB0054020681440208C
:102DC000B8094020002944D02DE9F0410D46804645
:102DD00000F092FE55F8047C694927F00103A5F143
:102DE0000804E2188E685068B24220F003005ED0FA
:102DF000FE0750600BD455F8087CE41B01F1080E67
:102E0000A56875453B446DD0E768EF60BD60151857
:102E10006D68ED073ED543F001026260E350B3F503
:102E2000007F17D2DB08581C9A104D6851F830709B
:102E3000A7600123934001EBC0022B43083AE260F4
:102E40004B6041F83040FC604046BDE8F04100F086
:102E500059BE70475A0A042A52D89A0902F1390712
:102E6000FF0002F13805C819CA59083890424FD0FE
:102E7000516821F003018B4232D292689042F7D11F
:102E8000C368A060E3609C60C4604046BDE8F04158
:102E900000F038BE95683B4FBD42034440D0D06837
:102EA000E86043F0010285606260E350B7E7FF0726
:102EB000034407D455F8082CA41A1344A068E26808
:102EC000C2609060304A126843F001009342606033
:102ED0008C60B9D32D4B40461968FFF723FFB3E749
:102EE0001046CDE711184968C90744D49168D268E3
:102EF000CA60034443F0010091606060E350A3E7BF
:102F0000142A16D802F15C07FF0002F15B05AAE75C
:102F1000AA1001234D6893402B434B600346B0E752
:102F200043F001024C610C61E560A5606260E35012
:102F30008AE7542A06D81A0B02F16F07FF0002F144
:102F40006E0590E7B2F5AA7F06D8DA0B02F1780792
:102F5000FF0002F1770586E740F25450824206D81E
:102F60009A0C02F17D07FF0002F17C057BE74FF42C
:102F70007E777E2577E743F001016160136063E7A8
:102F8000B0054020B8054020BC09402098144020DE
:102F90009368002B73D02DE9F04F8B8983B00C46DA
:102FA00019070090164626D5226922B313F00200B5
:102FB00035682CD04FF00009B04FC846B246B8452E
:102FC00043464A4628BF3B460098B8F1000F50D010
:102FD000E169666AB047002858DDDAF808301B1A44
:102FE0008144A8EB0008CAF80830002BE7D1002084
:102FF00003B0BDE8F08F21460098FFF749FC002898
:1030000040F03381A389356813F00200D2D113F068
:10301000010945D14F46019637B39A05D4F8088087
:1030200040F183804745C346C0F0AB8013F4906FF6
:1030300040F0AC802068BA465A46494600F0F8FC99
:10304000A2682368A2EB08025B44A2602360019A95
:103050009368A3EB0A03D144A7EB0A079360002B04
:10306000C5D0A389002FD8D1D5F800906F68083556
:10307000D2E7D5F80090D5F8048008359FE7002006
:10308000704721460098FFF71FFD70B3B4F90C306C
:1030900043F040034FF0FF30A38103B0BDE8F08F51
:1030A000814633464E46A8469A464D464EB380B3B7
:1030B000206823696269B145CB4628BFB346984270
:1030C0005F4604D9A36813449B4500F3A68093454B
:1030D0004BDB1346676AE16900982A46B847071E2A
:1030E000D4DDB9EB0709CCD00120DAF80830DB1BBE
:1030F0003D44F61BCAF80830002B3FF478AF002E91
:10310000D5D108F1080313E9600098460833002E72
:10311000F9D032460A21284600F03AFC002800F097
:10312000A1800130A0EB0509C2E72068236998421D
:1031300002D863699F425DD2B84528BFB84642466F
:10314000494600F075FCA3682268A3EB08034244DB
:10315000A36022600BB1C24679E721460098FFF7D1
:10316000B3FC002892D1C24671E75A46294600F0C6
:103170005FFCA2682368A2EB0B025B44A2602360A1
:10318000AFE72068B846BA46BB4655E76269206893
:10319000216902EB4208A0EB010A08EBD8780AF19A
:1031A00001004FEA680838444045424684BF8046E3
:1031B00042465B0544D51146009800F021F983464C
:1031C000002855D052462169FEF7E0FAA38923F47E
:1031D000906343F08003A3810BEB0A00A8EB0A0382
:1031E000C4F810B0C4F814802060A360B846BA4692
:1031F000BB4621E76FF00041B94228BF39464A4635
:1032000091FBF3F10098666A03FB01F3E169B047B3
:10321000B0F1000A3FF71BAF38E71A462946019381
:1032200000F006FC2268019B00981A4422602146A7
:10323000FFF74AFC019B00287FF428AF1F4650E7A8
:10324000009800F065FC83460028C5D1009D2169E7
:103250002846FFF7B7FDB4F90C300C2223F08003A9
:103260002A6015E706F1010922E74FF0FF30BFE6BB
:10327000009A0C231360B4F90C3009E700FCFF7FBF
:103280002DE9F84310F538771FD0884606464FF0F1
:1032900000097D68BC68013D11D4A389012B05F1AB
:1032A000FF3508D9B4F90E3001332146304602D03B
:1032B000C04749EA00096B1C04F16804EDD13F687E
:1032C000002FE6D14846BDE8F883B9464846BDE838
:1032D000F88300BF044B054A1B685B6B002B08BFDB
:1032E000134693F8280170471400402044044020FE
:1032F000704700BF704700BF704700BF704700BFF6
:1033000070B50C46B1F90E10002990B015461E4656
:1033100014DB01AA01F03EF800280FDB029A02F448
:103320007042A2F50052B2FA82F252094FF4806361
:103330004FF4006032602B6010B070BDA289002392
:1033400012F08000336004D0402218462A6010B08A
:1033500070BD4FF480632B6010B070BD8A899207F6
:103360000B4606D501F1430201211A601A61596129
:103370007047F0B583B001AB6A460C460646FFF7CE
:10338000BFFF00990546304600F03AF8B4F90C301A
:10339000D8B1019A154F0099F76343F08003A381D8
:1033A0002060206161611AB92B43A38103B0F0BD95
:1033B0003046B4F90E1001F001F8A0B1A38923F052
:1033C000030343F001031BB2EEE79A05EED423F0AA
:1033D000030304F1430243F002030121A3812260AD
:1033E00022616161E2E7B4F90C30DDE71D2B40009A
:1033F000024B0146186800F003B800BF14004020DB
:103400002DE9F04F01F10B06162E83B0054640F270
:103410009E8036F0070600F1BD80B14200F2BA800E
:1034200000F06AFBB6F5FC7FC0F09382730A00F0EF
:10343000B880042B00F27981B30903F1390003F15C
:10344000380EC300BF4F3B44A3F108015C68A142A2
:1034500006D10CE0002A80F2AA80E468A14206D0DE
:10346000636823F003039A1B0F2AF3DD70463C695F
:10347000DFF8E4E2744500F0AB81636823F00303F6
:103480009A1B0F2A00F39081002AC7F814E0C7F8AE
:1034900010E080F29D80B3F5007F80F06181DB0851
:1034A00003F1010C99107A6857F83C80C4F8088041
:1034B00001238B4007EBCC0113430839E1607B60AB
:1034C00047F83C40C8F80C408210012494409C42CC
:1034D00000F28B801C4206D120F0030064001C42E5
:1034E00000F10400FAD007EBC009CC468046DCF8B6
:1034F0000C309C4507D16DE1002A80F27B81DB68AE
:103500009C4500F06781596821F003018A1B0F2A4E
:10351000F2DDD3F80CC0D3F8088000939C1928463C
:1035200046F0010642F001055E60C8F80CC0CCF818
:1035300008807C613C61C4F80CE0C4F808E0656078
:103540005A5000F0DFFA009B03F108041EE0102936
:1035500020D800F0D1FA102618230220794F3B44DE
:10356000A3F108025C68944200F03D816368E16861
:10357000A66823F00303234428465A68F16042F00A
:1035800001028E605A6000F0BDFA0834204603B094
:10359000BDE8F08F00240C2320462B6003B0BDE86B
:1035A000F08F40204FF400734FF03F0E4AE7234462
:1035B000E1685A68A66842F00102F16028468E6010
:1035C0005A6000F09FFA0834204603B0BDE8F08F3F
:1035D000234428465A6842F001025A6000F092FAE9
:1035E0000834204603B0BDE8F08FBC68636823F060
:1035F0000308B04504D3A8EB06030F2B00F3858026
:10360000DFF85891504BD9F800201B680132334441
:1036100004EB080A00F0558103F580530F3323F4BF
:103620007F6B2BF00F0B5946284600F017FC411C0E
:10363000024600F0FC80824500F2F780434B196897
:103640005944196000F04D81D9F8000001301BBFCA
:10365000A2EB0A0A5144C9F80020196012F00701D0
:1036600000F01581C1F10800C1F580510244083114
:1036700002EB0B09C9F30B09A1EB090949462846DE
:103680000193009200F0EAFB431C9DE80C0000F05F
:103690004381801A484440F001001968BA604944E7
:1036A000BC425060196017D0B8F10F0F40F2FB8098
:1036B0006068A8F10C0222F0070204EB020E00F091
:1036C00001004FF0050C10430F2A6060CEF804C0D3
:1036D000CEF808C000F217811D4BBC681A689142F1
:1036E00088BF19601B4B1A689142626888BF1960D5
:1036F00022F003029642A2EB060301D80F2B04DC52
:10370000284600F0FFF9002440E7A21943F0010326
:1037100046F0010666602846BA60536000F0F2F990
:103720000834204603B0BDE8F08F142B71D9542B18
:1037300000F2A380330B03F16F0003F16E0EC300A0
:1037400080E600BFB0054020981440206814402057
:103750009014402094144020B8054020B80940201F
:103760005A0A042A5BD9142A00F2AE8002F15C01E5
:10377000C9005B3207EB010C7958ACF1080C8C45A1
:1037800000F088804A6822F00302934273D289686D
:103790008C45F7D1DCF80C207B68E260C4F808C0E7
:1037A0009460CCF80C408FE6A11946F0010C42F071
:1037B0000106C4F804C0284679613961C1F80CE0FB
:1037C000C1F808E04E60E25000F09CF90834DDE6F4
:1037D0007B6879E608F1010818F0030F0CF1080C7A
:1037E0007FF485AE2DE0DC68A34208BF02303FF4D1
:1037F0003EAEBBE619441C464A68DB6854F8086FC5
:1038000042F001024A602846F3609E6000F07AF9B7
:10381000BCE603F15C0003F15B0EC30012E69A09FB
:1038200002F13901C9003832A4E7BC4254D0BC6867
:10383000626822F003025DE759F80839994540F0C3
:10384000868010F0030F00F1FF30F5D17B6823EA8A
:1038500004037B6064009C423FF6C7AE002C3FF43B
:10386000C4AE1C4240467FF43EAE64001C4200F1F0
:103870000400FAD037E68C468CE7B3F5AA7F15D85A
:10388000F30B03F1780003F1770EC300DAE54FF490
:103890008051EDE67B689210012101FA02F2134398
:1038A0007B60624679E70123536029E740F2545276
:1038B000934222D8B30C03F17D0003F17C0EC300C8
:1038C000C0E503F1100BAEE6542A29D81A0B02F119
:1038D0006F01C9006E324DE7204B196859441960D9
:1038E000B2E6CAF30B0000287FF4AEAE08EB0B0380
:1038F000BA6843F001035360EEE67F204FF47E7315
:103900004FF07E0E9EE504F1080128460093FFF774
:1039100059FA009B1968DFE601204FF00009BCE668
:10392000B2F5AA7F05D8DA0B02F17801C900773227
:1039300020E740F254518A4205D89A0C02F17D01E9
:10394000C9007C3216E74FF47E717E2212E77B6855
:1039500080E7F00806F1080300E600BF6814402085
:1039600082B049B15AB16BB113780B601278101C58
:1039700018BF012002B0704701A9002AF3D11046F8
:1039800002B070476FF00100F4E700BF00000000D4
:1039900001F0FF01102A2BDB10F0070F08D010F800
:1039A000013B013A8B422DD010F0070F42B3F6D104
:1039B000F0B441EA012141EA014122F007047FF01D
:1039C00000070023F0E80256083C85EA010586EA74
:1039D000010685FA47F5A3FA87F586FA47F6A5FAB0
:1039E00087F68EB9EED1F0BC01F0FF0102F00702BC
:1039F00032B110F8013B013A83EA010313B1F8D167
:103A00000020704701387047002D06BF3546033847
:103A1000073815F0010F07D1013015F4807F02BF80
:103A2000013015F4C03F0130F0BC0138704700BFD1
:103A30008842F0B50DD98B1898420AD28418002A12
:103A400051D0224613F8014D02F8014D9942F9D1A7
:103A5000F0BD0F2A48D941EA00039B0746D100F187
:103A6000100401F11003154653F8106C44F8106C63
:103A700053F80C6C44F80C6C53F8086C44F8086C60
:103A8000103D53F8046C44F8046C0F2D03F110033F
:103A900004F11004E8D8A2F1100323F00F0302F0A0
:103AA0000F0E1033BEF1030F1944034421D91E1F1A
:103AB0000D467446043C55F8047B46F8047F032CFD
:103AC000F8D8AEF1040424F0030404342144234460
:103AD00002F0030262B1013B0A4411F8014B03F802
:103AE000014F8A42F9D1F0BD0346F3E70346F2E7FE
:103AF000F0BD7246EEE700BF0148FFF7FDBB00BF17
:103B0000B81440200148FFF7F9BB00BFB8144020AB
:103B1000002900F095802DE9F04F0D46164683B040
:103B2000804606F10B07FFF7E7FF55F804EC162F68
:103B30002EF00304A5F108093CD810221746BE4216
:103B40003DD8944243DAC44B996809EB040088429B
:103B500000F0B480436823F0010101444968C907BB
:103B60004CD51EF0010F00F09B8031464046FFF718
:103B700047FC064600283AD055F8043C23F00103E0
:103B80004B44A0F108029A4200F02181221F242A0E
:103B900000F20781132A00F2DB8003462A461168EF
:103BA00019605168596092689A6029464046FFF74B
:103BB00009F91CE027F00707002F3A46BFDA002674
:103BC0000C233046C8F8003003B0BDE8F08F2E4615
:103BD000E31B0F2B1ED8D9F8043003F00103234355
:103BE0004C44C9F80430636843F001036360404605
:103BF000FFF788FF304603B0BDE8F08F23F00303E2
:103C0000E11891421FDBC36882682E46D3600C46E0
:103C10009A60DDE7D9F8042009EB070102F0010200
:103C20004C4443F001031743C9F804704B606368C8
:103C300043F00103083163604046FFF7C3F8D6E75D
:103C40001146FFF7DDBB1EF0010F8ED155F8081CA1
:103C5000A9EB010ADAF8041021F003010B44234414
:103C6000934225DBC26881685646CA609160DAF8E3
:103C70000C1056F8080F221F242AC160886000F239
:103C80009480132A6FD92968CAF808106968CAF89D
:103C90000C101B2A00F2A28008350AF1100263E022
:103CA00055F8083CA9EB030ADAF8041021F00301E7
:103CB00063189342FFF659AF5646D8E7416821F0A2
:103CC000030BA34407F11000834556DA1EF0010FE1
:103CD0007FF44BAF55F8081CA9EB010ADAF8041081
:103CE00021F003018B445845E2DC5646DAF80C100B
:103CF00056F8080F221F242AC160886000F28F80C6
:103D0000132A40F28A802968CAF808106968CAF83C
:103D10000C101B2A00F28A8008350AF1100229686B
:103D2000116069685160A96891600AEB0701ABEB0B
:103D3000070242F0010299604A60DAF8043003F0A9
:103D400001031F434046CAF80470FFF7DBFE51E74A
:103D50002B6803606B6843601B2A2DD800F10803B1
:103D600005F108021BE73246296811606968516055
:103D7000A96891601C46D1462AE709EB0701ABEB25
:103D8000070B4BF0010299604A6055F8043C03F0C0
:103D900001031F43404645F8047CFFF7B3FE2E465F
:103DA00028E72946FFF744FEFFE6294630461C4631
:103DB000D146FFF73DFE0BE7AB688360EB68C3605D
:103DC000242A17D000F1100305F11002E7E650F89D
:103DD000043C23F003031C442E46F9E6A968CAF804
:103DE0001010E968CAF81410242A0CD010350AF112
:103DF0001802B9E72B6903616B69436105F1180289
:103E000000F11803CBE62A69CAF818206A69CAF8D3
:103E10001C2018350AF12002A6E732467FE7294622
:103E200030460193FFF704FE019B7EE7A968CAF8BC
:103E30001010E968CAF81410242A03D010350AF1CA
:103E400018026CE72A69CAF818206A69CAF81C20A7
:103E500018350AF1200262E7B005402038B5074C5A
:103E60000023054608462360FDF7CCFB431C00D029
:103E700038BD2368002BFBD02B6038BDCC1440200C
:103E80001F2928D820B5D0F8DC2282B00546AAB177
:103E900052F8213093B1012B0ED0581C07D00025C9
:103EA000084642F821509847284602B020BD162304
:103EB00001202B6002B020BD0020F6E728460191CA
:103EC00000F02AF801990A460146284602B0BDE8EA
:103ED000204000F00DB8162303604FF0FF3070470C
:103EE000024B01461868FFF7CBBF00BF140040200B
:103EF00038B50B46074C054611461846002323608B
:103F0000FDF7AAFB431C00D038BD2368002BFBD073
:103F10002B6038BDCC144020FDF79FBB10B50C467C
:103F2000B1F90E1000F072FA002803DB236D034490
:103F3000236510BDA38923F48053A38110BD00BF66
:103F40002DE9F0411646B1F90C201F46D3050C4669
:103F5000054607D500220223B1F90E1000F040FA01
:103F6000B4F90C20B4F90E1022F48052A2813B4621
:103F700032462846BDE8F04100F020B910B50C46A5
:103F8000B1F90E1000F02CFAA389421C0EBF23F4E5
:103F9000805343F480532065A38110BDB1F90E1006
:103FA00000F084B9000000000000000000000000E4
:103FB0000000000000000000000000000000000001
:103FC00090F800F06DE9024520F007016FF0000C59
:103FD00010F0070491F820F040F049804FF0000401
:103FE0006FF00700D1E9002391F840F000F10800DC
:103FF00082FA4CF2A4FA8CF283FA4CF3A2FA8CF314
:104000004BBBD1E9022382FA4CF200F10800A4FA7A
:104010008CF283FA4CF3A2FA8CF3E3B9D1E90423CE
:1040200082FA4CF200F10800A4FA8CF283FA4CF305
:10403000A2FA8CF37BB9D1E9062301F1200182FABF
:104040004CF200F10800A4FA8CF283FA4CF3A2FAC5
:104050008CF3002BC6D0002A04BF04301A4612BAD3
:10406000B2FA82F2FDE8024500EBD2007047D1E9D6
:10407000002304F00305C4F100004FEAC50514F065
:10408000040F91F840F00CFA05F562EA05021CBF36
:1040900063EA050362464FF00004A9E7F8B50D4650
:1040A0001446064610B1836B002B4BD0B4F90C209C
:1040B000A369A36091B2080739D52369002B36D0D4
:1040C000EDB289042F4615D522686169D31A8B4257
:1040D0001CDA0133A168501C0139A1602060157001
:1040E00062699A421AD0A389DB0701D50A2D15D03F
:1040F0003846F8BD616E42F4005221F40051A281AD
:10410000226861666169D31A8B42E2DB2146304640
:10411000FEF7DAFC40B922680123DBE7214630468E
:10412000FEF7D2FC0028E3D04FF0FF37E0E721464E
:104130003046FEF7ADFB0028F6D1B4F90C20236918
:1041400091B2BDE7FEF718FDB0E700BFF0B5064637
:1041500085B01F4689B1104C104D2468646B002C4B
:1041600008BF2C46D4F8E040A047431C03D10022EE
:104170008A233A60336005B0F0BD0C460649074A11
:104180000968496B002908BF11462246D1F8E04072
:1041900001A9A047E9E700BF1400402044044020E3
:1041A00021B1FF2A04D80A700120704708467047E1
:1041B0008A2303604FF0FF30704700BF70B50D4693
:1041C000084C114606461A46284600232360FCF791
:1041D00075FC431C00D070BD2368002BFBD03360FE
:1041E00070BD00BFCC1440202DE9F8432C4D06468D
:1041F000286898460F469146FFF77EF8294B1C68C1
:10420000D4F84831002B3ED05A681F2A1CDC02F13A
:10421000010E76B103EB82010124C1F88890D3F836
:10422000880194402043022EC3F88801C1F8088118
:1042300023D00232C3F804E0286843F82270FFF765
:104240005DF80020BDE8F883174B0BB34FF4C8703E
:10425000FFF7CEF80346D8B1D4F848210260002118
:1042600041600A46C4F848014FF0010EC0F88811B9
:10427000C0F88C11002EDCD0CCE7D3F88C110C43A5
:10428000C3F88C41D5E704F5A673C4F84831BBE701
:104290002868FFF733F84FF0FF30BDE8F88300BF20
:1042A00040044020E04B4000F133400038B5074C5B
:1042B0000023054608462360FDF7C0F9431C00D0E3
:1042C00038BD2368002BFBD02B6038BDCC144020B8
:1042D00070B559B105460C4610B1836B002B3CD02C
:1042E000636ED80705D5B4F90C302BB900263046DB
:1042F00070BDA38999053CD521462846FEF744FBAD
:10430000E36A064633B1E169284698470028B8BFFA
:104310004FF0FF36A3891A0622D4216B41B104F174
:104320004003994202D02846FEF74CFD0023236348
:10433000616C21B12846FEF745FD00236364FEF75A
:1043400047FC636E0022DB07A2810ED5A06DFEF74D
:10435000D1FFFEF743FC304670BDFEF70DFCBFE712
:1043600021692846FEF72EFDD7E7A06DFEF7C6FFB0
:10437000ECE7A06DFEF7C0FFB4F90C30002BBBD109
:10438000666E16F00106B1D1A06DFEF7B7FF30469C
:1043900070BD00BF38B50B46074C054611461846A0
:1043A00000232360FDF74DF9431C00D038BD23687E
:1043B000002BFBD02B6038BDCC14402038B5074C07
:1043C0000023054608462360FDF740F9431C00D052
:1043D00038BD2368002BFBD02B6038BDCC144020A7
:1043E00070B50D46084C114606461A46284600236D
:1043F0002360FDF72DF9431C00D070BD2368002B0E
:10440000FBD0336070BD00BFCC14402070B50D46AA
:10441000084C114606461A46284600232360FCF73E
:104420002FFB431C00D070BD2368002BFBD03360F2
:1044300070BD00BFCC14402053B94AB9002908BF51
:1044400000281CBF4FF0FF314FF0FF3000F07AB969
:10445000ADF1080C6DE904CE00F006F8DDF804E0DB
:10446000DDE9022304B070472DE9F0478C460D4684
:104470000446089E002B51D18A4217466DD9B2FAE4
:1044800082FEBEF1000F0BD0CEF1200C01FA0EF52A
:1044900020FA0CFC02FA0EF74CEA050C00FA0EF4B6
:1044A0004FEA174A250CBCFBFAF81FFA87F90AFBFA
:1044B00018CC45EA0C4508FB09F3AB420AD9ED19C3
:1044C00008F1FF3280F02381AB4240F22081A8F155
:1044D00002083D44ED1AA4B2B5FBFAF00AFB1055F0
:1044E00044EA054400FB09F9A14509D9E41900F1A2
:1044F000FF3380F00A81A14540F2078102383C4435
:10450000A4EB090440EA08400021002E61D024FAFF
:104510000EF4002334607360BDE8F0878B4207D946
:10452000002E54D0002186E821000846BDE8F0871F
:10453000B3FA83F1002940F08E80AB4202D382426D
:1045400000F2FA80841A65EB03050120AC46002EC8
:104550003FD086E81010BDE8F08712B90127B7FBFD
:10456000F2F7B7FA87FEBEF1000F34D1EB1B3A0C1D
:104570001FFA87FC0121B3FBF2F8250C02FB18336C
:1045800045EA03450CFB08F3AB4207D9ED1908F1E6
:10459000FF3002D2AB4200F2D1808046ED1AA3B2C6
:1045A000B5FBF2F002FB105543EA05440CFB00FC9E
:1045B000A44507D9E41900F1FF3302D2A44500F263
:1045C000B8801846A4EB0C0440EA08409DE7314649
:1045D0003046BDE8F087CEF1200405FA0EF307FA65
:1045E0000EF720FA04F83A0C25FA04F448EA030816
:1045F000B4FBF2F14FEA184502FB11441FFA87FCA5
:1046000045EA044501FB0CF3AB4200FA0EF409D96C
:10461000ED1901F1FF3080F08A80AB4240F28780D3
:1046200002393D44EB1A1FFA88F5B3FBF2F002FBA6
:10463000103345EA034500FB0CF3AB4207D9ED19F3
:1046400000F1FF386FD2AB426DD902383D44EB1A0E
:1046500040EA01418FE7C1F1200722FA07F88B40B9
:1046600005FA01F448EA030320FA07FE4FEA134C67
:10467000FD404EEA040EB5FBFCF94FEA1E440CFB6C
:1046800019551FFA83F844EA054509FB08F4AC42C2
:1046900002FA01F200FA01FA08D9ED1809F1FF3027
:1046A00043D2AC4241D9A9F102091D442D1B1FFA86
:1046B0008EFEB5FBFCF00CFB10554EEA054400FBEA
:1046C00008F8A04507D9E41800F1FF3529D2A04524
:1046D00027D902381C4440EA0940A4EB0804A0FB97
:1046E00002894C45C6464D4615D312D056B1BAEB99
:1046F0000E0364EB050404FA07F7CB401F43CC40DC
:10470000376074600021BDE8F0871846F8E69046EF
:10471000E0E6C245EAD2B8EB020E69EB03050138C8
:10472000E4E72846D7E7404691E78146BEE70146E1
:1047300078E702383C4445E7084608E7A8F1020854
:104740003D442BE7704700BF62625F706F72745F19
:104750007365745F646174615F6469726563743109
:104760003600000062625F706F72745F6765745F2D
:10477000646174615F646972656374333200000060
:1047800028627974654F6666736574496E576F72F7
:1047900064202520325529203D3D203000000000B6
:1047A0002E2E2F626C61636B626F6172642F626286
:1047B0005F706F72742E6300627974654F66667302
:1047C0006574496E576F7264203D3D2030000000D3
:1047D0000004000074494000640000000400000070
:1047E00084494000010004000000000000000000B7
:1047F00000000000000000000000000000000000B9
:1048000079054000010000000301000010040000D1
:10481000904940006400000008000000A4494000E6
:1048200001000200B849400001020200CC494000EA
:1048300001040200DC494000010602000000000003
:10484000000000000100000060040000EC4940008E
:104850006400000001000000F04940000100010078
:104860000000000000000000000000000000000048
:104870000000000000000000000000000000000038
:104880000100000070040000004A400064000000C5
:1048900001000000144A4000010001000000000077
:1048A0000000000000000000000000000000000008
:1048B00000000000000000000000000001000000F7
:1048C00080040000244A4000640000000100000051
:1048D000284A400001000100000000000000000024
:1048E00000000000000000000000000000000000C8
:1048F0000000000000000000010000003006000081
:10490000384A40006400000001000000444A4000B2
:104910000100010000000000000000000000000095
:1049200000000000000000000000000079054000C9
:10493000010000000001000031060000504A400064
:1049400064000000080000005C4A40000100020012
:104950006C4A400001020200804A4000010402004B
:104960008C4A400001060200000000000000000028
:104970000001000053434D5F53797374656D4261CC
:104980007266790054657374466C6F6F66790000C7
:1049900053434D5F4D6F746F7231506172616D732F
:1049A000310000006D6F746F7231416363656C6537
:1049B000726174696F6E00006D6F746F723144655F
:1049C00063656C65726174696F6E00006D6F746F02
:1049D00072314D6178537065656400006D6F746F5E
:1049E00072314D696E5370656564000053434D5FCD
:1049F0004D6F746F7231436F6E74726F6C00000094
:104A000053434D5F4D6F746F7231436F6E74726FAD
:104A1000320000004D6F746F7232436F6E74726FAC
:104A20006C00000053434D5F4D6F746F7233436FE2
:104A30006E74726F6C00000052434D5F5379737453
:104A4000656D00004D6F64756C6549640000000081
:104A500052434D5F53656E736F72310053656E73D1
:104A60006F7231566F6C74616765000053656E73C9
:104A70006F723154656D7065726174757265000096
:104A800053656E736F7231466F6F000053656E73BE
:104A90006F723142617200007465737443616C6CB3
:104AA0006261636B3A2053434D5F4556454E545FF8
:104AB000464F4F3D25642C2072784368616E3D253A
:104AC000642C2074784368616E3D25642C20636FEC
:104AD000756E7465723D25640A0000003A204D43EE
:104AE000414E20627573206F6666206572726F7228
:104AF0002C2072652D696E697469616C697A6174C4
:104B0000696F6E2E200D0A0D0A00000050726F743E
:104B10006F636F6C2041434B206572726F722C2063
:104B2000706C6561736520646F75626C6520636885
:104B300065636B2074686520636C6F636B20696EBE
:104B40002074776F20626F617264732E200D0A0DDE
:104B50000A00000050726F746F636F6C20666F7292
:104B60006D6174206572726F722C20706C65617358
:104B70006520646F75626C6520636865636B207483
:104B8000686520636C6F636B20696E2074776F209B
:104B9000626F617264732E200D0A0D0A000000001E
:104BA0002C2066756E6374696F6E3A2000000000F9
:104BB000617373657274696F6E202225732220669B
:104BC00061696C65643A2066696C652022257322F0
:104BD0002C206C696E65202564257325730A0000FE
:104BE00018004020303132333435363738394142BD
:104BF0004344454600000000303132333435363707
:104C0000383961626364656600000000286E756C67
:104C10006C2900002020202020202020202020207F
:104C200020202020303030303030303030303030C4
:104C30003030303043000000504F534958000000DE
:104C40002E000000002020202020202020202828C6
:104C5000282828202020202020202020202020203C
:104C6000202020202088101010101010101010107C
:104C700010101010100404040404040404040410AC
:104C8000101010101010414141414141010101013A
:104C90000101010101010101010101010101010104
:104CA0001010101010104242424242420202020210
:104CB00002020202020202020202020202020202D4
:104CC0001010101020000000000000000000000084
:104CD00000000000000000000000000000000000D4
:104CE00000000000000000000000000000000000C4
:104CF00000000000000000000000000000000000B4
:104D000000000000000000000000000000000000A3
:104D10000000000000000000000000000000000093
:104D20000000000000000000000000000000000083
:104D30000000000000000000000000000000000073
:104D40000000000000000000F8B500BFF8BC08BC7F
:104D50009E467047592940008D014000F8B500BFBC
:0C4D6000F8BC08BC9E467047690140008A
:084D6C00FCF6FF7F01000000CE
:104D740009064000000000002500000001000000BA
:104D840000093D00180040200000000004034020FA
:104D94006C034020D4034020000000000000000009
:104DA40000000000000000000000000000000000FF
:104DB40000000000000000000000000000000000EF
:104DC40000000000000000000000000000000000DF
:104DD40000000000000000000000000000000000CF
:104DE40000000000000000000000000000000000BF
:104DF40000000000000000000000000000000000AF
:104E0400000000000000000000000000000000009E
:104E1400000000000000000000000000000000008E
:104E2400000000000000000000000000000000007E
:104E340001000000000000000E33CDAB34126DE61B
:104E4400ECDE05000B000000000000000000000084
:104E5400000000000000000000000000000000004E
:104E6400000000000000000000000000000000003E
:104E7400000000000000000000000000000000002E
:104E8400000000000000000000000000000000001E
:1051B400A81440204300000000000000000000008C
:1051C40000000000000000000000000000000000DB
:1051D4000000000043000000000000000000000088
:1051E40000000000000000000000000000000000BB
:1051F4000000000043000000000000000000000068
:10520400000000000000000000000000000000009A
:105214000000000043000000000000000000000047
:10522400000000000000000000000000000000007A
:105234000000000043000000000000000000000027
:10524400000000000000000000000000000000005A
:105254000000000043000000000000000000000007
:10526400000000000000000000000000000000003A
:1052740000000000430000000000000000000000E7
:10528400000000000000000000000000000000001A
:1052940000000000A141400061394000000000000E
:1052A400444C4000404C40009C4B40009C4B400010
:1052B4009C4B40009C4B40009C4B40009C4B40004E
:1052C4009C4B40009C4B40009C4B4000FFFFFFFF69
:1052D400FFFFFFFFFFFFFFFFFFFF0000010041533F
:1052E40043494900000000000000000000000000E5
:1052F4000000000000000000000000000000415316
:1053040043494900000000000000000000000000C4
:105314000000000000000000000000000000000089
:105324000000000000000000B0054020B00540204F
:10533400B8054020B8054020C0054020C0054020E5
:10534400C8054020C8054020D0054020D005402095
:10535400D8054020D8054020E0054020E005402045
:10536400E8054020E8054020F0054020F0054020F5
:10537400F8054020F80540200006402000064020A3
:105384000806402008064020100640201006402051
:105394001806402018064020200640202006402001
:1053A40028064020280640203006402030064020B1
:1053B4003806402038064020400640204006402061
:1053C4004806402048064020500640205006402011
:1053D40058064020580640206006402060064020C1
:1053E4006806402068064020700640207006402071
:1053F4007806402078064020800640208006402021
:1054040088064020880640209006402090064020D0
:105414009806402098064020A0064020A006402080
:10542400A8064020A8064020B0064020B006402030
:10543400B8064020B8064020C0064020C0064020E0
:10544400C8064020C8064020D0064020D006402090
:10545400D8064020D8064020E0064020E006402040
:10546400E8064020E8064020F0064020F0064020F0
:10547400F8064020F806402000074020000740209E
:10548400080740200807402010074020100740204C
:1054940018074020180740202007402020074020FC
:1054A40028074020280740203007402030074020AC
:1054B400380740203807402040074020400740205C
:1054C400480740204807402050074020500740200C
:1054D40058074020580740206007402060074020BC
:1054E400680740206807402070074020700740206C
:1054F400780740207807402080074020800740201C
:1055040088074020880740209007402090074020CB
:105514009807402098074020A0074020A00740207B
:10552400A8074020A8074020B0074020B00740202B
:10553400B8074020B8074020C0074020C0074020DB
:10554400C8074020C8074020D0074020D00740208B
:10555400D8074020D8074020E0074020E00740203B
:10556400E8074020E8074020F0074020F0074020EB
:10557400F8074020F8074020000840200008402099
:105584000808402008084020100840201008402047
:1055940018084020180840202008402020084020F7
:1055A40028084020280840203008402030084020A7
:1055B4003808402038084020400840204008402057
:1055C4004808402048084020500840205008402007
:1055D40058084020580840206008402060084020B7
:1055E4006808402068084020700840207008402067
:1055F4007808402078084020800840208008402017
:1056040088084020880840209008402090084020C6
:105614009808402098084020A0084020A008402076
:10562400A8084020A8084020B0084020B008402026
:10563400B8084020B8084020C0084020C0084020D6
:10564400C8084020C8084020D0084020D008402086
:10565400D8084020D8084020E0084020E008402036
:10566400E8084020E8084020F0084020F0084020E6
:10567400F8084020F8084020000940200009402094
:105684000809402008094020100940201009402042
:1056940018094020180940202009402020094020F2
:1056A40028094020280940203009402030094020A2
:1056B4003809402038094020400940204009402052
:1056C4004809402048094020500940205009402002
:1056D40058094020580940206009402060094020B2
:1056E4006809402068094020700940207009402062
:1056F4007809402078094020800940208009402012
:1057040088094020880940209009402090094020C1
:105714009809402098094020A0094020A009402071
:10572400A8094020A8094020FFFFFFFF0000020055
:04000005004013A5FF
:00000001FF
